{"abi":[{"type":"fallback","stateMutability":"payable"},{"type":"receive","stateMutability":"payable"},{"type":"function","name":"SET_ADMIN","inputs":[],"outputs":[{"name":"","type":"bytes32","internalType":"bytes32"}],"stateMutability":"view"},{"type":"function","name":"SET_EXIT_FEE","inputs":[],"outputs":[{"name":"","type":"bytes32","internalType":"bytes32"}],"stateMutability":"view"},{"type":"function","name":"atomConfig","inputs":[],"outputs":[{"name":"atomWalletInitialDepositAmount","type":"uint256","internalType":"uint256"},{"name":"atomCreationProtocolFee","type":"uint256","internalType":"uint256"}],"stateMutability":"view"},{"type":"function","name":"atomDepositFractionAmount","inputs":[{"name":"assets","type":"uint256","internalType":"uint256"},{"name":"id","type":"uint256","internalType":"uint256"}],"outputs":[{"name":"","type":"uint256","internalType":"uint256"}],"stateMutability":"view"},{"type":"function","name":"atoms","inputs":[{"name":"atomId","type":"uint256","internalType":"uint256"}],"outputs":[{"name":"atomData","type":"bytes","internalType":"bytes"}],"stateMutability":"view"},{"type":"function","name":"atomsByHash","inputs":[{"name":"atomHash","type":"bytes32","internalType":"bytes32"}],"outputs":[{"name":"atomId","type":"uint256","internalType":"uint256"}],"stateMutability":"view"},{"type":"function","name":"batchCreateAtom","inputs":[{"name":"atomUris","type":"bytes[]","internalType":"bytes[]"}],"outputs":[{"name":"","type":"uint256[]","internalType":"uint256[]"}],"stateMutability":"payable"},{"type":"function","name":"batchCreateTriple","inputs":[{"name":"subjectIds","type":"uint256[]","internalType":"uint256[]"},{"name":"predicateIds","type":"uint256[]","internalType":"uint256[]"},{"name":"objectIds","type":"uint256[]","internalType":"uint256[]"}],"outputs":[{"name":"","type":"uint256[]","internalType":"uint256[]"}],"stateMutability":"payable"},{"type":"function","name":"cancelOperation","inputs":[{"name":"operationId","type":"bytes32","internalType":"bytes32"},{"name":"data","type":"bytes","internalType":"bytes"}],"outputs":[],"stateMutability":"nonpayable"},{"type":"function","name":"computeAtomWalletAddr","inputs":[{"name":"id","type":"uint256","internalType":"uint256"}],"outputs":[{"name":"","type":"address","internalType":"address"}],"stateMutability":"view"},{"type":"function","name":"convertToAssets","inputs":[{"name":"shares","type":"uint256","internalType":"uint256"},{"name":"id","type":"uint256","internalType":"uint256"}],"outputs":[{"name":"","type":"uint256","internalType":"uint256"}],"stateMutability":"view"},{"type":"function","name":"convertToShares","inputs":[{"name":"assets","type":"uint256","internalType":"uint256"},{"name":"id","type":"uint256","internalType":"uint256"}],"outputs":[{"name":"","type":"uint256","internalType":"uint256"}],"stateMutability":"view"},{"type":"function","name":"count","inputs":[],"outputs":[{"name":"","type":"uint256","internalType":"uint256"}],"stateMutability":"view"},{"type":"function","name":"createAtom","inputs":[{"name":"atomUri","type":"bytes","internalType":"bytes"}],"outputs":[{"name":"","type":"uint256","internalType":"uint256"}],"stateMutability":"payable"},{"type":"function","name":"createTriple","inputs":[{"name":"subjectId","type":"uint256","internalType":"uint256"},{"name":"predicateId","type":"uint256","internalType":"uint256"},{"name":"objectId","type":"uint256","internalType":"uint256"}],"outputs":[{"name":"","type":"uint256","internalType":"uint256"}],"stateMutability":"payable"},{"type":"function","name":"currentSharePrice","inputs":[{"name":"id","type":"uint256","internalType":"uint256"}],"outputs":[{"name":"","type":"uint256","internalType":"uint256"}],"stateMutability":"view"},{"type":"function","name":"deployAtomWallet","inputs":[{"name":"atomId","type":"uint256","internalType":"uint256"}],"outputs":[{"name":"","type":"address","internalType":"address"}],"stateMutability":"nonpayable"},{"type":"function","name":"depositAtom","inputs":[{"name":"receiver","type":"address","internalType":"address"},{"name":"id","type":"uint256","internalType":"uint256"}],"outputs":[{"name":"","type":"uint256","internalType":"uint256"}],"stateMutability":"payable"},{"type":"function","name":"depositTriple","inputs":[{"name":"receiver","type":"address","internalType":"address"},{"name":"id","type":"uint256","internalType":"uint256"}],"outputs":[{"name":"","type":"uint256","internalType":"uint256"}],"stateMutability":"payable"},{"type":"function","name":"entryFeeAmount","inputs":[{"name":"assets","type":"uint256","internalType":"uint256"},{"name":"id","type":"uint256","internalType":"uint256"}],"outputs":[{"name":"","type":"uint256","internalType":"uint256"}],"stateMutability":"view"},{"type":"function","name":"exitFeeAmount","inputs":[{"name":"assets","type":"uint256","internalType":"uint256"},{"name":"id","type":"uint256","internalType":"uint256"}],"outputs":[{"name":"","type":"uint256","internalType":"uint256"}],"stateMutability":"view"},{"type":"function","name":"generalConfig","inputs":[],"outputs":[{"name":"admin","type":"address","internalType":"address"},{"name":"protocolVault","type":"address","internalType":"address"},{"name":"feeDenominator","type":"uint256","internalType":"uint256"},{"name":"minDeposit","type":"uint256","internalType":"uint256"},{"name":"minShare","type":"uint256","internalType":"uint256"},{"name":"atomUriMaxLength","type":"uint256","internalType":"uint256"},{"name":"decimalPrecision","type":"uint256","internalType":"uint256"},{"name":"minDelay","type":"uint256","internalType":"uint256"}],"stateMutability":"view"},{"type":"function","name":"getAtomCost","inputs":[],"outputs":[{"name":"","type":"uint256","internalType":"uint256"}],"stateMutability":"view"},{"type":"function","name":"getAtomWarden","inputs":[],"outputs":[{"name":"","type":"address","internalType":"address"}],"stateMutability":"view"},{"type":"function","name":"getCounterIdFromTriple","inputs":[{"name":"id","type":"uint256","internalType":"uint256"}],"outputs":[{"name":"","type":"uint256","internalType":"uint256"}],"stateMutability":"pure"},{"type":"function","name":"getDepositFees","inputs":[{"name":"assets","type":"uint256","internalType":"uint256"},{"name":"id","type":"uint256","internalType":"uint256"}],"outputs":[{"name":"","type":"uint256","internalType":"uint256"}],"stateMutability":"view"},{"type":"function","name":"getDepositSharesAndFees","inputs":[{"name":"assets","type":"uint256","internalType":"uint256"},{"name":"id","type":"uint256","internalType":"uint256"}],"outputs":[{"name":"","type":"uint256","internalType":"uint256"},{"name":"","type":"uint256","internalType":"uint256"},{"name":"","type":"uint256","internalType":"uint256"},{"name":"","type":"uint256","internalType":"uint256"}],"stateMutability":"view"},{"type":"function","name":"getRedeemAssetsAndFees","inputs":[{"name":"shares","type":"uint256","internalType":"uint256"},{"name":"id","type":"uint256","internalType":"uint256"}],"outputs":[{"name":"","type":"uint256","internalType":"uint256"},{"name":"","type":"uint256","internalType":"uint256"},{"name":"","type":"uint256","internalType":"uint256"},{"name":"","type":"uint256","internalType":"uint256"}],"stateMutability":"view"},{"type":"function","name":"getTripleAtoms","inputs":[{"name":"id","type":"uint256","internalType":"uint256"}],"outputs":[{"name":"","type":"uint256","internalType":"uint256"},{"name":"","type":"uint256","internalType":"uint256"},{"name":"","type":"uint256","internalType":"uint256"}],"stateMutability":"view"},{"type":"function","name":"getTripleCost","inputs":[],"outputs":[{"name":"","type":"uint256","internalType":"uint256"}],"stateMutability":"view"},{"type":"function","name":"getVaultStateForUser","inputs":[{"name":"vaultId","type":"uint256","internalType":"uint256"},{"name":"receiver","type":"address","internalType":"address"}],"outputs":[{"name":"","type":"uint256","internalType":"uint256"},{"name":"","type":"uint256","internalType":"uint256"}],"stateMutability":"view"},{"type":"function","name":"init","inputs":[{"name":"_generalConfig","type":"tuple","internalType":"struct IEthMultiVault.GeneralConfig","components":[{"name":"admin","type":"address","internalType":"address"},{"name":"protocolVault","type":"address","internalType":"address"},{"name":"feeDenominator","type":"uint256","internalType":"uint256"},{"name":"minDeposit","type":"uint256","internalType":"uint256"},{"name":"minShare","type":"uint256","internalType":"uint256"},{"name":"atomUriMaxLength","type":"uint256","internalType":"uint256"},{"name":"decimalPrecision","type":"uint256","internalType":"uint256"},{"name":"minDelay","type":"uint256","internalType":"uint256"}]},{"name":"_atomConfig","type":"tuple","internalType":"struct IEthMultiVault.AtomConfig","components":[{"name":"atomWalletInitialDepositAmount","type":"uint256","internalType":"uint256"},{"name":"atomCreationProtocolFee","type":"uint256","internalType":"uint256"}]},{"name":"_tripleConfig","type":"tuple","internalType":"struct IEthMultiVault.TripleConfig","components":[{"name":"tripleCreationProtocolFee","type":"uint256","internalType":"uint256"},{"name":"atomDepositFractionOnTripleCreation","type":"uint256","internalType":"uint256"},{"name":"atomDepositFractionForTriple","type":"uint256","internalType":"uint256"}]},{"name":"_walletConfig","type":"tuple","internalType":"struct IEthMultiVault.WalletConfig","components":[{"name":"permit2","type":"address","internalType":"contract IPermit2"},{"name":"entryPoint","type":"address","internalType":"address"},{"name":"atomWarden","type":"address","internalType":"address"},{"name":"atomWalletBeacon","type":"address","internalType":"address"}]},{"name":"_defaultVaultFees","type":"tuple","internalType":"struct IEthMultiVault.VaultFees","components":[{"name":"entryFee","type":"uint256","internalType":"uint256"},{"name":"exitFee","type":"uint256","internalType":"uint256"},{"name":"protocolFee","type":"uint256","internalType":"uint256"}]}],"outputs":[],"stateMutability":"nonpayable"},{"type":"function","name":"isTriple","inputs":[{"name":"vaultId","type":"uint256","internalType":"uint256"}],"outputs":[{"name":"isTriple","type":"bool","internalType":"bool"}],"stateMutability":"view"},{"type":"function","name":"isTripleId","inputs":[{"name":"id","type":"uint256","internalType":"uint256"}],"outputs":[{"name":"","type":"bool","internalType":"bool"}],"stateMutability":"view"},{"type":"function","name":"maxRedeem","inputs":[{"name":"sender","type":"address","internalType":"address"},{"name":"id","type":"uint256","internalType":"uint256"}],"outputs":[{"name":"","type":"uint256","internalType":"uint256"}],"stateMutability":"view"},{"type":"function","name":"pause","inputs":[],"outputs":[],"stateMutability":"nonpayable"},{"type":"function","name":"paused","inputs":[],"outputs":[{"name":"","type":"bool","internalType":"bool"}],"stateMutability":"view"},{"type":"function","name":"previewDeposit","inputs":[{"name":"assets","type":"uint256","internalType":"uint256"},{"name":"id","type":"uint256","internalType":"uint256"}],"outputs":[{"name":"","type":"uint256","internalType":"uint256"}],"stateMutability":"view"},{"type":"function","name":"previewRedeem","inputs":[{"name":"shares","type":"uint256","internalType":"uint256"},{"name":"id","type":"uint256","internalType":"uint256"}],"outputs":[{"name":"","type":"uint256","internalType":"uint256"}],"stateMutability":"view"},{"type":"function","name":"protocolFeeAmount","inputs":[{"name":"assets","type":"uint256","internalType":"uint256"},{"name":"id","type":"uint256","internalType":"uint256"}],"outputs":[{"name":"","type":"uint256","internalType":"uint256"}],"stateMutability":"view"},{"type":"function","name":"redeemAtom","inputs":[{"name":"shares","type":"uint256","internalType":"uint256"},{"name":"receiver","type":"address","internalType":"address"},{"name":"id","type":"uint256","internalType":"uint256"}],"outputs":[{"name":"","type":"uint256","internalType":"uint256"}],"stateMutability":"nonpayable"},{"type":"function","name":"redeemTriple","inputs":[{"name":"shares","type":"uint256","internalType":"uint256"},{"name":"receiver","type":"address","internalType":"address"},{"name":"id","type":"uint256","internalType":"uint256"}],"outputs":[{"name":"","type":"uint256","internalType":"uint256"}],"stateMutability":"nonpayable"},{"type":"function","name":"scheduleOperation","inputs":[{"name":"operationId","type":"bytes32","internalType":"bytes32"},{"name":"data","type":"bytes","internalType":"bytes"}],"outputs":[],"stateMutability":"nonpayable"},{"type":"function","name":"setAdmin","inputs":[{"name":"admin","type":"address","internalType":"address"}],"outputs":[],"stateMutability":"nonpayable"},{"type":"function","name":"setAtomCreationProtocolFee","inputs":[{"name":"atomCreationProtocolFee","type":"uint256","internalType":"uint256"}],"outputs":[],"stateMutability":"nonpayable"},{"type":"function","name":"setAtomDepositFractionForTriple","inputs":[{"name":"atomDepositFractionForTriple","type":"uint256","internalType":"uint256"}],"outputs":[],"stateMutability":"nonpayable"},{"type":"function","name":"setAtomDepositFractionOnTripleCreation","inputs":[{"name":"atomDepositFractionOnTripleCreation","type":"uint256","internalType":"uint256"}],"outputs":[],"stateMutability":"nonpayable"},{"type":"function","name":"setAtomUriMaxLength","inputs":[{"name":"atomUriMaxLength","type":"uint256","internalType":"uint256"}],"outputs":[],"stateMutability":"nonpayable"},{"type":"function","name":"setAtomWalletInitialDepositAmount","inputs":[{"name":"atomWalletInitialDepositAmount","type":"uint256","internalType":"uint256"}],"outputs":[],"stateMutability":"nonpayable"},{"type":"function","name":"setAtomWarden","inputs":[{"name":"atomWarden","type":"address","internalType":"address"}],"outputs":[],"stateMutability":"nonpayable"},{"type":"function","name":"setEntryFee","inputs":[{"name":"id","type":"uint256","internalType":"uint256"},{"name":"entryFee","type":"uint256","internalType":"uint256"}],"outputs":[],"stateMutability":"nonpayable"},{"type":"function","name":"setExitFee","inputs":[{"name":"id","type":"uint256","internalType":"uint256"},{"name":"exitFee","type":"uint256","internalType":"uint256"}],"outputs":[],"stateMutability":"nonpayable"},{"type":"function","name":"setMinDeposit","inputs":[{"name":"minDeposit","type":"uint256","internalType":"uint256"}],"outputs":[],"stateMutability":"nonpayable"},{"type":"function","name":"setMinShare","inputs":[{"name":"minShare","type":"uint256","internalType":"uint256"}],"outputs":[],"stateMutability":"nonpayable"},{"type":"function","name":"setProtocolFee","inputs":[{"name":"id","type":"uint256","internalType":"uint256"},{"name":"protocolFee","type":"uint256","internalType":"uint256"}],"outputs":[],"stateMutability":"nonpayable"},{"type":"function","name":"setProtocolVault","inputs":[{"name":"protocolVault","type":"address","internalType":"address"}],"outputs":[],"stateMutability":"nonpayable"},{"type":"function","name":"setTripleCreationProtocolFee","inputs":[{"name":"tripleCreationProtocolFee","type":"uint256","internalType":"uint256"}],"outputs":[],"stateMutability":"nonpayable"},{"type":"function","name":"timelocks","inputs":[{"name":"operationHash","type":"bytes32","internalType":"bytes32"}],"outputs":[{"name":"data","type":"bytes","internalType":"bytes"},{"name":"readyTime","type":"uint256","internalType":"uint256"},{"name":"executed","type":"bool","internalType":"bool"}],"stateMutability":"view"},{"type":"function","name":"tripleAtomShares","inputs":[{"name":"tripleId","type":"uint256","internalType":"uint256"},{"name":"atomId","type":"uint256","internalType":"uint256"},{"name":"account","type":"address","internalType":"address"}],"outputs":[{"name":"balance","type":"uint256","internalType":"uint256"}],"stateMutability":"view"},{"type":"function","name":"tripleConfig","inputs":[],"outputs":[{"name":"tripleCreationProtocolFee","type":"uint256","internalType":"uint256"},{"name":"atomDepositFractionOnTripleCreation","type":"uint256","internalType":"uint256"},{"name":"atomDepositFractionForTriple","type":"uint256","internalType":"uint256"}],"stateMutability":"view"},{"type":"function","name":"tripleHash","inputs":[{"name":"id","type":"uint256","internalType":"uint256"}],"outputs":[{"name":"","type":"bytes32","internalType":"bytes32"}],"stateMutability":"view"},{"type":"function","name":"tripleHashFromAtoms","inputs":[{"name":"subjectId","type":"uint256","internalType":"uint256"},{"name":"predicateId","type":"uint256","internalType":"uint256"},{"name":"objectId","type":"uint256","internalType":"uint256"}],"outputs":[{"name":"","type":"bytes32","internalType":"bytes32"}],"stateMutability":"pure"},{"type":"function","name":"triples","inputs":[{"name":"tripleId","type":"uint256","internalType":"uint256"},{"name":"","type":"uint256","internalType":"uint256"}],"outputs":[{"name":"tripleAtomIds","type":"uint256","internalType":"uint256"}],"stateMutability":"view"},{"type":"function","name":"triplesByHash","inputs":[{"name":"tripleHash","type":"bytes32","internalType":"bytes32"}],"outputs":[{"name":"tripleId","type":"uint256","internalType":"uint256"}],"stateMutability":"view"},{"type":"function","name":"unpause","inputs":[],"outputs":[],"stateMutability":"nonpayable"},{"type":"function","name":"vaultFees","inputs":[{"name":"vaultId","type":"uint256","internalType":"uint256"}],"outputs":[{"name":"entryFee","type":"uint256","internalType":"uint256"},{"name":"exitFee","type":"uint256","internalType":"uint256"},{"name":"protocolFee","type":"uint256","internalType":"uint256"}],"stateMutability":"view"},{"type":"function","name":"vaults","inputs":[{"name":"vaultId","type":"uint256","internalType":"uint256"}],"outputs":[{"name":"totalAssets","type":"uint256","internalType":"uint256"},{"name":"totalShares","type":"uint256","internalType":"uint256"}],"stateMutability":"view"},{"type":"function","name":"walletConfig","inputs":[],"outputs":[{"name":"permit2","type":"address","internalType":"contract IPermit2"},{"name":"entryPoint","type":"address","internalType":"address"},{"name":"atomWarden","type":"address","internalType":"address"},{"name":"atomWalletBeacon","type":"address","internalType":"address"}],"stateMutability":"view"},{"type":"event","name":"AtomCreated","inputs":[{"name":"creator","type":"address","indexed":true,"internalType":"address"},{"name":"atomWallet","type":"address","indexed":true,"internalType":"address"},{"name":"atomData","type":"bytes","indexed":false,"internalType":"bytes"},{"name":"vaultID","type":"uint256","indexed":false,"internalType":"uint256"}],"anonymous":false},{"type":"event","name":"Deposited","inputs":[{"name":"sender","type":"address","indexed":true,"internalType":"address"},{"name":"receiver","type":"address","indexed":true,"internalType":"address"},{"name":"receiverTotalSharesInVault","type":"uint256","indexed":false,"internalType":"uint256"},{"name":"senderAssetsAfterTotalFees","type":"uint256","indexed":false,"internalType":"uint256"},{"name":"sharesForReceiver","type":"uint256","indexed":false,"internalType":"uint256"},{"name":"entryFee","type":"uint256","indexed":false,"internalType":"uint256"},{"name":"vaultId","type":"uint256","indexed":false,"internalType":"uint256"},{"name":"isTriple","type":"bool","indexed":false,"internalType":"bool"},{"name":"isAtomWallet","type":"bool","indexed":false,"internalType":"bool"}],"anonymous":false},{"type":"event","name":"FeesTransferred","inputs":[{"name":"sender","type":"address","indexed":true,"internalType":"address"},{"name":"protocolVault","type":"address","indexed":true,"internalType":"address"},{"name":"amount","type":"uint256","indexed":false,"internalType":"uint256"}],"anonymous":false},{"type":"event","name":"Initialized","inputs":[{"name":"version","type":"uint64","indexed":false,"internalType":"uint64"}],"anonymous":false},{"type":"event","name":"Paused","inputs":[{"name":"account","type":"address","indexed":false,"internalType":"address"}],"anonymous":false},{"type":"event","name":"Redeemed","inputs":[{"name":"sender","type":"address","indexed":true,"internalType":"address"},{"name":"receiver","type":"address","indexed":true,"internalType":"address"},{"name":"senderTotalSharesInVault","type":"uint256","indexed":false,"internalType":"uint256"},{"name":"assetsForReceiver","type":"uint256","indexed":false,"internalType":"uint256"},{"name":"sharesRedeemedBySender","type":"uint256","indexed":false,"internalType":"uint256"},{"name":"exitFee","type":"uint256","indexed":false,"internalType":"uint256"},{"name":"vaultId","type":"uint256","indexed":false,"internalType":"uint256"}],"anonymous":false},{"type":"event","name":"TripleCreated","inputs":[{"name":"creator","type":"address","indexed":true,"internalType":"address"},{"name":"subjectId","type":"uint256","indexed":false,"internalType":"uint256"},{"name":"predicateId","type":"uint256","indexed":false,"internalType":"uint256"},{"name":"objectId","type":"uint256","indexed":false,"internalType":"uint256"},{"name":"vaultID","type":"uint256","indexed":false,"internalType":"uint256"}],"anonymous":false},{"type":"event","name":"Unpaused","inputs":[{"name":"account","type":"address","indexed":false,"internalType":"address"}],"anonymous":false},{"type":"error","name":"EnforcedPause","inputs":[]},{"type":"error","name":"ExpectedPause","inputs":[]},{"type":"error","name":"InvalidInitialization","inputs":[]},{"type":"error","name":"MultiVault_AdminOnly","inputs":[]},{"type":"error","name":"MultiVault_ArraysNotSameLength","inputs":[]},{"type":"error","name":"MultiVault_AtomDoesNotExist","inputs":[{"name":"atomId","type":"uint256","internalType":"uint256"}]},{"type":"error","name":"MultiVault_AtomExists","inputs":[{"name":"atomUri","type":"bytes","internalType":"bytes"}]},{"type":"error","name":"MultiVault_AtomUriTooLong","inputs":[]},{"type":"error","name":"MultiVault_BurnFromZeroAddress","inputs":[]},{"type":"error","name":"MultiVault_BurnInsufficientBalance","inputs":[]},{"type":"error","name":"MultiVault_DeployAccountFailed","inputs":[]},{"type":"error","name":"MultiVault_DepositOrWithdrawZeroShares","inputs":[]},{"type":"error","name":"MultiVault_HasCounterStake","inputs":[]},{"type":"error","name":"MultiVault_InsufficientBalance","inputs":[]},{"type":"error","name":"MultiVault_InsufficientDepositAmountToCoverFees","inputs":[]},{"type":"error","name":"MultiVault_InsufficientRemainingSharesInVault","inputs":[{"name":"remainingShares","type":"uint256","internalType":"uint256"}]},{"type":"error","name":"MultiVault_InsufficientSharesInVault","inputs":[]},{"type":"error","name":"MultiVault_InvalidEntryFee","inputs":[]},{"type":"error","name":"MultiVault_InvalidExitFee","inputs":[]},{"type":"error","name":"MultiVault_InvalidProtocolFee","inputs":[]},{"type":"error","name":"MultiVault_MinimumDeposit","inputs":[]},{"type":"error","name":"MultiVault_OperationAlreadyExecuted","inputs":[]},{"type":"error","name":"MultiVault_OperationAlreadyScheduled","inputs":[]},{"type":"error","name":"MultiVault_OperationNotScheduled","inputs":[]},{"type":"error","name":"MultiVault_ReceiveNotAllowed","inputs":[]},{"type":"error","name":"MultiVault_TimelockNotExpired","inputs":[]},{"type":"error","name":"MultiVault_TransferFailed","inputs":[]},{"type":"error","name":"MultiVault_TripleExists","inputs":[{"name":"subjectId","type":"uint256","internalType":"uint256"},{"name":"predicateId","type":"uint256","internalType":"uint256"},{"name":"objectId","type":"uint256","internalType":"uint256"}]},{"type":"error","name":"MultiVault_VaultDoesNotExist","inputs":[]},{"type":"error","name":"MultiVault_VaultIsTriple","inputs":[{"name":"vaultId","type":"uint256","internalType":"uint256"}]},{"type":"error","name":"MultiVault_VaultNotAtom","inputs":[]},{"type":"error","name":"MultiVault_VaultNotTriple","inputs":[]},{"type":"error","name":"NotInitializing","inputs":[]},{"type":"error","name":"ReentrancyGuardReentrantCall","inputs":[]}],"bytecode":{"object":"0x6080604052348015600f57600080fd5b50614c028061001f6000396000f3fe6080604052600436106103f25760003560e01c8063704b6c0211610208578063b790e67211610118578063db04a47c116100ab578063e3b764af1161007a578063e3b764af14610db9578063ee9dd98f14610de6578063f10c9f9b14610e06578063f315a94e14610e19578063f903ff7214610e4657610410565b8063db04a47c14610d1b578063db2088f414610d59578063dc5adb8c14610d79578063de3cca6014610d9957610410565b8063c61703ac116100e7578063c61703ac14610c36578063c9ceddb814610c66578063cfc15f1514610c95578063d34ddc0514610cb557610410565b8063b790e67214610bb6578063bb7dd37914610bd6578063bbec4d0614610bf6578063c26388e314610c1657610410565b80638c64ea4a1161019b578063927a97a11161016a578063927a97a114610ab15780639f49b60e14610b36578063a4ddc78614610b56578063ab23856514610b76578063ae0a154214610b9657610410565b80638c64ea4a14610a165780638daf744314610a4a5780638fcc9cfb14610a5d5780639085559214610a7d57610410565b80638456cb59116101d75780638456cb59146109b057806384e100db146109c5578063859aa971146109e357806389065256146109f657610410565b8063704b6c02146108ee5780637a7af70d1461090e5780637c3736611461092e5780637f833f041461098057610410565b80633800c5c4116103035780635408eec91161029657806361d2a6571161026557806361d2a6571461084e57806365f646851461086e57806366e34a331461088e57806367ab7594146108ae5780636cc18d40146108ce57610410565b80635408eec9146107b057806356d54d68146107d057806359b125d2146107f05780635c975abb1461081d57610410565b80633f4ba83a116102d25780633f4ba83a1461070e578063441d1c2f146107235780634abe4137146107365780634d592c6a1461077c57610410565b80633800c5c41461069b57806339a38449146106bb57806339c4f49c146106db57806339c5dec7146106ee57610410565b80631d35900a116103865780632a22fec5116103555780632a22fec5146106065780632dbc4982146106265780632dd426441461064657806333332d3914610666578063340a28121461067b57610410565b80631d35900a1461054b5780631e19e2c81461058b57806322061379146105aa578063240de277146105e657610410565b80630cde801b116103c25780630cde801b146104bb5780630d65c91c146104f657806313aaab971461050b578063181e7b3b1461052b57610410565b80621fc87d1461041a57806304c89bc61461043a57806306661abd1461046d5780630ac819db1461048357610410565b36610410576040516307a15ef160e51b815260040160405180910390fd5b610418610e66565b005b34801561042657600080fd5b50610418610435366004613b91565b610efe565b34801561044657600080fd5b5061045a610455366004613bae565b610f4b565b6040519081526020015b60405180910390f35b34801561047957600080fd5b5061045a60115481565b34801561048f57600080fd5b506104a361049e366004613bd0565b610fa6565b6040516001600160a01b039091168152602001610464565b3480156104c757600080fd5b506104db6104d6366004613bd0565b61101e565b60408051938452602084019290925290820152606001610464565b34801561050257600080fd5b5061045a6110d2565b34801561051757600080fd5b5061045a610526366004613bd0565b6110ff565b34801561053757600080fd5b5061045a610546366004613bae565b61115a565b34801561055757600080fd5b5061056b610566366004613bae565b61119c565b604080519485526020850193909352918301526060820152608001610464565b34801561059757600080fd5b50600a54600b54600c546104db92919083565b3480156105b657600080fd5b506104db6105c5366004613bd0565b60136020526000908152604090208054600182015460029092015490919083565b3480156105f257600080fd5b50610418610601366004613bae565b61126e565b34801561061257600080fd5b50610418610621366004613bd0565b6112e4565b34801561063257600080fd5b50610418610641366004613bd0565b611314565b34801561065257600080fd5b50610418610661366004613bd0565b611344565b34801561067257600080fd5b5061045a611374565b34801561068757600080fd5b50610418610696366004613bd0565b61138e565b3480156106a757600080fd5b5061045a6106b6366004613be9565b6113be565b3480156106c757600080fd5b5061045a6106d6366004613bae565b6114c9565b61045a6106e9366004613c21565b61151c565b3480156106fa57600080fd5b50610418610709366004613b91565b611587565b34801561071a57600080fd5b506104186115d4565b61045a610731366004613c4d565b611609565b34801561074257600080fd5b5061045a610751366004613c4d565b60009081526012602090815260408083206001600160a01b0394909416835260029093019052205490565b34801561078857600080fd5b5061045a7f778822020b59638b22ca9362f2de4db01600920f59fc336582386847a4f2ec0a81565b3480156107bc57600080fd5b506104186107cb366004613bae565b6116e0565b3480156107dc57600080fd5b506104186107eb366004613cba565b611753565b3480156107fc57600080fd5b5061045a61080b366004613bd0565b60176020526000908152604090205481565b34801561082957600080fd5b50600080516020614b8d8339815191525460ff165b6040519015158152602001610464565b34801561085a57600080fd5b50610418610869366004613e75565b611883565b61088161087c366004613f94565b611b8a565b6040516104649190613fd5565b34801561089a57600080fd5b5061083e6108a9366004613bd0565b611cdd565b3480156108ba57600080fd5b5061056b6108c9366004613bae565b611d38565b3480156108da57600080fd5b506104186108e9366004613bd0565b611dc8565b3480156108fa57600080fd5b50610418610909366004613b91565b611df8565b34801561091a57600080fd5b5061045a610929366004613bae565b611efd565b34801561093a57600080fd5b5061045a610949366004613c21565b6040805160208082019590955280820193909352606080840192909252805180840390920182526080909201909152805191012090565b34801561098c57600080fd5b5060085460095461099b919082565b60408051928352602083019190915201610464565b3480156109bc57600080fd5b50610418611f16565b3480156109d157600080fd5b50600f546001600160a01b03166104a3565b61045a6109f1366004613c4d565b611f49565b348015610a0257600080fd5b5061099b610a1136600461400d565b612035565b348015610a2257600080fd5b5061099b610a31366004613bd0565b6012602052600090815260409020805460019091015482565b610881610a5836600461403d565b61207a565b348015610a6957600080fd5b50610418610a78366004613bd0565b61222f565b348015610a8957600080fd5b5061045a7f7925972c66d280d08f7e7a6e3f3aae3eb40e786fe30284acf451c52bdc133abd81565b348015610abd57600080fd5b50600054600154600254600354600454600554600654600754610af0976001600160a01b03908116971695949392919088565b604080516001600160a01b03998a168152989097166020890152958701949094526060860192909252608085015260a084015260c083015260e082015261010001610464565b348015610b4257600080fd5b50610418610b51366004613bae565b61225f565b348015610b6257600080fd5b5061045a610b71366004613bae565b612390565b348015610b8257600080fd5b50610418610b91366004613bd0565b6123fb565b348015610ba257600080fd5b5061045a610bb1366004613bae565b61242b565b348015610bc257600080fd5b5061045a610bd1366004613be9565b61247e565b348015610be257600080fd5b5061045a610bf1366004613bd0565b6124ae565b348015610c0257600080fd5b5061045a610c11366004613bae565b6124bc565b348015610c2257600080fd5b5061045a610c31366004613bae565b6124c9565b348015610c4257600080fd5b5061083e610c51366004613bd0565b60186020526000908152604090205460ff1681565b348015610c7257600080fd5b50610c86610c81366004613bd0565b6124f7565b60405161046493929190614126565b348015610ca157600080fd5b5061045a610cb0366004613bae565b6125a5565b348015610cc157600080fd5b50600d54600e54600f54601054610ce8936001600160a01b03908116938116928116911684565b604080516001600160a01b0395861681529385166020850152918416918301919091529091166060820152608001610464565b348015610d2757600080fd5b5061045a610d36366004614150565b601960209081526000938452604080852082529284528284209052825290205481565b348015610d6557600080fd5b5061045a610d74366004613bae565b6125ca565b348015610d8557600080fd5b506104a3610d94366004613bd0565b6125ff565b348015610da557600080fd5b50610418610db4366004613cba565b612681565b348015610dc557600080fd5b5061045a610dd4366004613bd0565b60156020526000908152604090205481565b348015610df257600080fd5b5061045a610e01366004613bd0565b61282c565b61045a610e14366004614189565b61287b565b348015610e2557600080fd5b50610e39610e34366004613bd0565b612900565b60405161046491906141be565b348015610e5257600080fd5b50610418610e61366004613bd0565b61299a565b36610e6f573636f35b6000805b80368210610e815750610edd565b600180830192600319810190351860001a9081610ecd57600019855260028301933560021984011860001a607f808211610ebc578282013888395b16949094019093019250610e739050565b8185538085019450505050610e73565b50600038826000305af490503d6000803e80610ef8573d6000fd5b503d6000f35b6000546001600160a01b03163314610f295760405163344c21f360e11b815260040160405180910390fd5b600f80546001600160a01b0319166001600160a01b0392909216919091179055565b60008181526013602052604081205481610f9b858315610f6b57836129ca565b6000805260136020527f8fa6efc3be94b5b348b21fea823fe8d100408cee9b7f90524494500445d8ff6c546129ca565b925050505b92915050565b60008181610fb26129dd565b8051602091820120604080516001600160f81b0319818501523060601b6bffffffffffffffffffffffff19166021820152603581019590955260558086019290925280518086039092018252607590940190935282519201919091206001600160a01b03169392505050565b600080808061103060026000196141e7565b8511905060008161104e57600086815260166020526040902061106d565b6016600061105e88600019614209565b81526020019081526020016000205b604080516060810191829052919060039082845b8154815260200190600101908083116110815750505050509050806000600381106110ae576110ae61421c565b60200201518160016020020151826002602002015194509450945050509193909250565b60045460009081906110e5906002614232565b600b54600a546110f59190614249565b610fa09190614249565b6000611109613ab6565b6111128361101e565b60408085018290526020808601849052848652815190810194909452830191909152606082015260800160405160208183030381529060405280519060200120915050919050565b6000818152601260205260408120600101548181156111935760008481526012602052604090205461118e90869084612abb565b610f9b565b50929392505050565b60008181526012602052604081206001015481908190819081906111c1908890614209565b905060006111cf888861115a565b90506000806111ed600080516020614b8d8339815191525460ff1690565b156111fd57506000905080611242565b600454840361121a57506000611213838a6114c9565b9150611242565b611224838a6114c9565b915060006112328385614209565b905061123e818b61242b565b9150505b826000836112508484614209565b61125a9190614209565b919c919b5092995090975095505050505050565b6000546001600160a01b031633146112995760405163344c21f360e11b815260040160405180910390fd5b6002546000906112ab90600a906141e7565b9050808211156112ce5760405163323d10bb60e11b815260040160405180910390fd5b5060009182526013602052604090912060020155565b6000546001600160a01b0316331461130f5760405163344c21f360e11b815260040160405180910390fd5b600455565b6000546001600160a01b0316331461133f5760405163344c21f360e11b815260040160405180910390fd5b600b55565b6000546001600160a01b0316331461136f5760405163344c21f360e11b815260040160405180910390fd5b600855565b600454600854600954600092839290916110f59190614249565b6000546001600160a01b031633146113b95760405163344c21f360e11b815260040160405180910390fd5b600555565b60006113c8612ae2565b8115806113d6575060115482115b156113f457604051631dd74dd360e21b815260040160405180910390fd5b6113fd82611cdd565b1561141b576040516330a1237960e11b815260040160405180910390fd5b60008061142a84338789612b1a565b915091506000856001600160a01b03168360405160006040518083038185875af1925050503d806000811461147b576040519150601f19603f3d011682016040523d82523d6000602084013e611480565b606091505b50509050806114a257604051636053f14b60e01b815260040160405180910390fd5b6114ab82612cf5565b50506001600080516020614bad8339815191525590505b9392505050565b60008181526013602052604081206002015481610f9b8583156114ec57836129ca565b6000805260136020527f8fa6efc3be94b5b348b21fea823fe8d100408cee9b7f90524494500445d8ff6e546129ca565b6000611526612ae2565b61152e612dd0565b6115366110d2565b34101561155657604051637b0a37cf60e01b815260040160405180910390fd5b60008061156586868634612e01565b91509150600081600a6000015461157c9190614249565b90506114ab81612cf5565b6000546001600160a01b031633146115b25760405163344c21f360e11b815260040160405180910390fd5b600180546001600160a01b0319166001600160a01b0392909216919091179055565b6000546001600160a01b031633146115ff5760405163344c21f360e11b815260040160405180910390fd5b611607613135565b565b6000611613612ae2565b61161b612dd0565b811580611629575060115482115b1561164757604051631dd74dd360e21b815260040160405180910390fd5b61165082611cdd565b1561166e576040516330a1237960e11b815260040160405180910390fd5b6003543410156116915760405163214d1c9760e11b815260040160405180910390fd5b600061169d34846114c9565b905060006116ab8234614209565b905060006116ba868684613195565b90506116c583612cf5565b92505050610fa06001600080516020614bad83398151915255565b6000546001600160a01b0316331461170b5760405163344c21f360e11b815260040160405180910390fd5b60025460009061171d90600a906141e7565b9050808211156117405760405163c346397360e01b815260040160405180910390fd5b5060009182526013602052604090912055565b6000546001600160a01b0316331461177e5760405163344c21f360e11b815260040160405180910390fd5b60075460405160009061179b90869086908690869060200161425c565b60408051601f1981840301815291815281516020928301206000818152601a909352912060010154909150156117e4576040516323dd65e160e21b815260040160405180910390fd5b60006117f08342614249565b6040805160806020601f89018190040282018101909252606081018781529293509182918890889081908501838280828437600092018290525093855250505060208083018590526040928301829052858252601a9052208151819061185690826142fe565b50602082015160018201556040909101516002909101805460ff1916911515919091179055505050505050565b7ff0c57e16840df040f15088dc2f81fe391c3923bec73e23a9662efc9c229c6a008054600160401b810460ff1615906001600160401b03166000811580156118c85750825b90506000826001600160401b031660011480156118e45750303b155b9050811580156118f2575080155b156119105760405163f92ee8a960e01b815260040160405180910390fd5b845467ffffffffffffffff19166001178555831561193a57845460ff60401b1916600160401b1785555b6119426132e2565b61194a6132f2565b896000808201518160000160006101000a8154816001600160a01b0302191690836001600160a01b0316021790555060208201518160010160006101000a8154816001600160a01b0302191690836001600160a01b0316021790555060408201518160020155606082015181600301556080820151816004015560a0820151816005015560c0820151816006015560e08201518160070155905050886008600082015181600001556020820151816001015590505087600a60008201518160000155602082015181600101556040820151816002015590505086600d60008201518160000160006101000a8154816001600160a01b0302191690836001600160a01b0316021790555060208201518160010160006101000a8154816001600160a01b0302191690836001600160a01b0316021790555060408201518160020160006101000a8154816001600160a01b0302191690836001600160a01b0316021790555060608201518160030160006101000a8154816001600160a01b0302191690836001600160a01b03160217905550905050604051806060016040528087600001518152602001876020015181526020018760400151815250601360008081526020019081526020016000206000820151816000015560208201518160010155604082015181600201559050508315611b7e57845460ff60401b19168555604051600181527fc7f505b2f371ae2175ee4913f4499e1f2633a7b5936321eed1cdaeb6115181d29060200160405180910390a15b50505050505050505050565b6060611b94612ae2565b611b9c612dd0565b8180611ba6611374565b611bb09190614232565b341015611bd057604051637b0a37cf60e01b815260040160405180910390fd5b6000611bdc82346141e7565b9050600080836001600160401b03811115611bf957611bf9613d05565b604051908082528060200260200182016040528015611c22578160200160208202803683370190505b50905060005b84811015611c96576000611c5f898984818110611c4757611c4761421c565b9050602002810190611c5991906143bd565b87613302565b848481518110611c7157611c7161421c565b60209081029190910101919091529050611c8b8185614249565b935050600101611c28565b5060008285600860010154611cab9190614232565b611cb59190614249565b9050611cc081612cf5565b509350505050610fa06001600080516020614bad83398151915255565b600080611ced60026000196141e7565b8311905080611d0d5760008381526018602052604090205460ff166114c2565b60186000611d1d85600019614209565b815260208101919091526040016000205460ff169392505050565b6000806000806000611d4a87876124c9565b90506000611d588289614209565b90506000611d66838a614209565b60045460008a8152601260205260408120600101549293509103611d8c57506000611d99565b611d96838a610f4b565b90505b6000611da58285614209565b90506000611db3828c6125ca565b939c939b509099509097509095505050505050565b6000546001600160a01b03163314611df35760405163344c21f360e11b815260040160405180910390fd5b600a55565b6000546001600160a01b03163314611e235760405163344c21f360e11b815260040160405180910390fd5b604080516001600160a01b0383166024808301919091528251808303909101815260449091018252602080820180516001600160e01b0316633825b60160e11b17905260075492519192600092611ea0927f778822020b59638b22ca9362f2de4db01600920f59fc336582386847a4f2ec0a928692909101614403565b604051602081830303815290604052805190602001209050611ec18161347a565b600080546001600160a01b0319166001600160a01b0394909416939093178355825250601a60205260409020600201805460ff19166001179055565b600080611f0a8484611d38565b50909695505050505050565b6000546001600160a01b03163314611f415760405163344c21f360e11b815260040160405180910390fd5b6116076135b3565b6000611f53612ae2565b611f5b612dd0565b611f6482611cdd565b611f8157604051632abf634360e01b815260040160405180910390fd5b611f8b82846135fc565b15611fa95760405163332c26cd60e01b815260040160405180910390fd5b600354341015611fcc5760405163214d1c9760e11b815260040160405180910390fd5b6000611fd834846114c9565b90506000611fe68234614209565b90506000611ff5868684613195565b9050600061200383876124c9565b9050612010868883613673565b61201984612cf5565b5092505050610fa06001600080516020614bad83398151915255565b60008281526012602090815260408083206001600160a01b0385168452600201909152812054819081612068828761119c565b509395509093505050505b9250929050565b6060612084612ae2565b61208c612dd0565b858414158061209b5750858214155b156120b95760405163479ca36960e01b815260040160405180910390fd5b8560006120c46110d2565b90506120d08282614232565b3410156120f057604051637b0a37cf60e01b815260040160405180910390fd5b60006120fc83346141e7565b9050600080846001600160401b0381111561211957612119613d05565b604051908082528060200260200182016040528015612142578160200160208202803683370190505b50905060005b858110156121dd5760006121a68e8e848181106121675761216761421c565b905060200201358d8d858181106121805761218061421c565b905060200201358c8c868181106121995761219961421c565b9050602002013588612e01565b8484815181106121b8576121b861421c565b602090810291909101019190915290506121d28185614249565b935050600101612148565b5060008286600a600001546121f29190614232565b6121fc9190614249565b905061220781612cf5565b509450505050506122256001600080516020614bad83398151915255565b9695505050505050565b6000546001600160a01b0316331461225a5760405163344c21f360e11b815260040160405180910390fd5b600355565b6000546001600160a01b0316331461228a5760405163344c21f360e11b815260040160405180910390fd5b60025460009061229c90600a906141e7565b9050808211156122bf57604051635cbe946f60e01b815260040160405180910390fd5b604080516024810185905260448082018590528251808303909101815260649091018252602080820180516001600160e01b0316634fa4db0760e11b17905260075492519192600092612338927f7925972c66d280d08f7e7a6e3f3aae3eb40e786fe30284acf451c52bdc133abd928692909101614403565b6040516020818303038152906040528051906020012090506123598161347a565b6000948552601360209081526040808720600190810196909655918652601a9052909320600201805460ff19169092179091555050565b60008061239d84846114c9565b905060006123ab8286614209565b905060006123b982866124c9565b905060006123c78284614209565b905060006123d58288610f4b565b90506000816123e48588614249565b6123ee9190614249565b9998505050505050505050565b6000546001600160a01b031633146124265760405163344c21f360e11b815260040160405180910390fd5b600c55565b60008181526013602052604081206001015481610f9b85831561244e57836129ca565b6000805260136020527f8fa6efc3be94b5b348b21fea823fe8d100408cee9b7f90524494500445d8ff6d546129ca565b6000612488612ae2565b61249182611cdd565b61141b57604051632abf634360e01b815260040160405180910390fd5b6000610fa082600019614209565b600080611f0a848461119c565b6000806124d583611cdd565b6124e05760006124ef565b6124ef84600a600201546129ca565b949350505050565b601a6020526000908152604090208054819061251290614277565b80601f016020809104026020016040519081016040528092919081815260200182805461253e90614277565b801561258b5780601f106125605761010080835404028352916020019161258b565b820191906000526020600020905b81548152906001019060200180831161256e57829003601f168201915b50505050600183015460029093015491929160ff16905083565b601660205281600052604060002081600381106125c157600080fd5b01549150829050565b6000818152601260205260408120600101548181156111935760008481526012602052604090205461118e9086908490612abb565b6000612609612dd0565b811580612617575060115482115b1561263557604051631dd74dd360e21b815260040160405180910390fd5b8160006126406129dd565b90506000828251602084016000f590506001600160a01b038116612677576040516349054c2f60e01b815260040160405180910390fd5b925050505b919050565b6000546001600160a01b031633146126ac5760405163344c21f360e11b815260040160405180910390fd5b6007546040516000916126c8918691869186919060200161425c565b6040516020818303038152906040528051906020012090506000601a600083815260200190815260200160002060405180606001604052908160008201805461271090614277565b80601f016020809104026020016040519081016040528092919081815260200182805461273c90614277565b80156127895780601f1061275e57610100808354040283529160200191612789565b820191906000526020600020905b81548152906001019060200180831161276c57829003601f168201915b5050509183525050600182015460208083019190915260029092015460ff1615156040909101528101519091506000036127d657604051630268c8ed60e51b815260040160405180910390fd5b8060400151156127f957604051631647946960e11b815260040160405180910390fd5b6000828152601a60205260408120906128128282613ad4565b5060006001820155600201805460ff191690555050505050565b60008181526012602052604081206001015481811561287157600654600085815260126020526040902054839161286291614232565b61286c91906141e7565b6124ef565b6000949350505050565b6000612885612ae2565b61288d612dd0565b612895611374565b3410156128b557604051637b0a37cf60e01b815260040160405180910390fd5b6000806128c3858534613302565b915091506000816008600101546128da9190614249565b90506128e581612cf5565b50506001600080516020614bad833981519152559050610fa0565b6014602052600090815260409020805461291990614277565b80601f016020809104026020016040519081016040528092919081815260200182805461294590614277565b80156129925780601f1061296757610100808354040283529160200191612992565b820191906000526020600020905b81548152906001019060200180831161297557829003601f168201915b505050505081565b6000546001600160a01b031633146129c55760405163344c21f360e11b815260040160405180910390fd5b600955565b6002546000906114c2908490849061374f565b6010546040516060916001600160a01b0316906000906129ff60208201613b11565b818103601f199081018352601f909101166040818152600e54600f546001600160a01b039182166024850152166044830152306064808401919091528151808403909101815260849092018152602080830180516001600160e01b031663184b955960e01b17905290519293509091600091612a7f918691859101614430565b60405160208183030381529060405290508281604051602001612aa3929190614454565b60405160208183030381529060405294505050505090565b6000826000190484118302158202612adb5763ad251c276000526004601cfd5b5091020490565b600080516020614bad833981519152805460011901612b1457604051633ee5aeb560e01b815260040160405180910390fd5b60029055565b60008082600003612b3e5760405163360495bf60e11b815260040160405180910390fd5b60008681526012602090815260408083206001600160a01b0389168452600201909152902054831115612b845760405163e5e7340760e01b815260040160405180910390fd5b600454600087815260126020526040902060010154612ba4908590614209565b1015612bec57600086815260126020526040902060010154612bc7908490614209565b60405163f89b912f60e01b8152600401612be391815260200190565b60405180910390fd5b6000806000612bfb868a61119c565b93509350935050612c60898385612c129190614249565b60008c815260126020526040902054612c2b9190614209565b60008c815260126020526040902060010154612c48908a90614209565b60009283526012602052604090922090815560010155565b612c6b888a8861377e565b60008981526012602090815260408083206001600160a01b038c8116808652600290920184529382902054825190815292830187905290820189905260608201849052608082018c905291891691907f347ee37487f7d4fe0b4d3777823c6a71c110e3df43f4f3d35356cf6909e9abdb9060a00160405180910390a3509097909650945050505050565b80600003612d005750565b6001546040516000916001600160a01b03169083908381818185875af1925050503d8060008114612d4d576040519150601f19603f3d011682016040523d82523d6000602084013e612d52565b606091505b5050905080612d7457604051636053f14b60e01b815260040160405180910390fd5b6001546040518381526001600160a01b039091169033907ffd2f5d3811ae7b8af2bd567683c6265c793894aa361eb932658effcf52d635a29060200160405180910390a35050565b6001600080516020614bad83398151915255565b600080516020614b8d8339815191525460ff16156116075760405163d93c066560e01b815260040160405180910390fd5b6000806000604051806060016040528088815260200187815260200186815250905060005b6003811015612f0057818160038110612e4157612e4161421c565b60200201511580612e695750601154828260038110612e6257612e6261421c565b6020020151115b15612ea157818160038110612e8057612e8061421c565b6020020151604051630c69720360e01b8152600401612be391815260200190565b612ec0828260038110612eb657612eb661421c565b6020020151611cdd565b15612ef857818160038110612ed757612ed761421c565b602002015160405163104c97c760e21b8152600401612be391815260200190565b600101612e26565b506040805160208082018a905281830189905260608083018990528351808403909101815260809092018352815191810191909120600081815260179092529190205415612f7257604051632cdeb83960e21b8152600481018990526024810188905260448101879052606401612be3565b6000612f7c6110d2565b612f869087614209565b90506000612f9261381b565b90506000612fa083836114c9565b90506000612fae8285614209565b905082601760008781526020019081526020016000208190555060405180606001604052808d81526020018c81526020018b81525060166000858152602001908152602001600020906003613004929190613b1e565b506000838152601860205260408120805460ff1916600117905561302882856124c9565b905061303e84336130398486614209565b613838565b801561304f5761304f843383613673565b600b54156130d95760005b60038110156130d75760008882600381106130775761307761421c565b602002015190506130ce816003600a6001015461309491906141e7565b6000848152601260205260409020546130ad9190614249565b60008481526012602052604080822060019081015494835291209182550155565b5060010161305a565b505b604080518e8152602081018e90529081018c90526060810185905233907f950bffece137ec4b4173970288bc78f45d30d77c58e0e87e6b210599a9ddc8f39060800160405180910390a250919b909a5098505050505050505050565b61313d6139d5565b600080516020614b8d833981519152805460ff191681557f5db9ee0a495bf2e6ff9c91a7834c1ba4fdd244a5e8aa4e537bd38aeae4b073aa335b6040516001600160a01b03909116815260200160405180910390a150565b60006131a18284611efd565b6000036131c15760405163360495bf60e11b815260040160405180910390fd5b6000806000806131d18688611d38565b9350935093509350600084116131fa57604051633da77bd160e21b815260040160405180910390fd5b60008781526012602052604090205461323790889061321a908790614249565b60008a815260126020526040902060010154612c48908790614249565b613242888885613a05565b60008781526012602090815260408083206001600160a01b038c1680855260029091019092529091205433907f63f1715b856071be1b955e9ae199dab3454f8aba9d970ba690fa6ac9268e7014908587868d61329d81611cdd565b6040805196875260208701959095529385019290925260608401526080830152151560a0820152600060c082015260e00160405180910390a350909695505050505050565b6132ea613a44565b611607613a8d565b6132fa613a44565b611607613a95565b600554600090819084111561332a57604051636455344360e01b815260040160405180910390fd5b6000613334611374565b905060008686604051613348929190614483565b60405180910390209050601560008281526020019081526020016000205460001461338a578686604051632d215baf60e21b8152600401612be39291906144bc565b60006133968387614209565b905060006133a261381b565b905060006133b083836114c9565b905060006133be8285614209565b90506133cb833383613838565b60006133d684610fa6565b90506133e88482600860000154613838565b60008481526014602052604090206134018c8e836144d0565b50836015600088815260200190815260200160002081905550806001600160a01b0316336001600160a01b03167f8a016c336f3624ae541c0b00d83a02b05ed2ecbb29874e15881766f51aa323e08e8e8860405161346193929190614590565b60405180910390a350919a909950975050505050505050565b6000818152601a60205260408082208151606081019092528054829082906134a190614277565b80601f01602080910402602001604051908101604052809291908181526020018280546134cd90614277565b801561351a5780601f106134ef5761010080835404028352916020019161351a565b820191906000526020600020905b8154815290600101906020018083116134fd57829003601f168201915b5050509183525050600182015460208083019190915260029092015460ff16151560409091015281015190915060000361356757604051630268c8ed60e51b815260040160405180910390fd5b80604001511561358a57604051631647946960e11b815260040160405180910390fd5b42816020015111156135af57604051635423118360e01b815260040160405180910390fd5b5050565b6135bb612dd0565b600080516020614b8d833981519152805460ff191660011781557f62e78cea01bee320cd4e420270b5ea74000d11b0c9f74754ebdbfc544b05a25833613177565b600061360783611cdd565b61362457604051632abf634360e01b815260040160405180910390fd5b600060128161363586600019614209565b81526020019081526020016000206002016000846001600160a01b03166001600160a01b031681526020019081526020016000205411905092915050565b61367b613ab6565b6136848461101e565b604084015260208301528152600061369d6003846141e7565b905060005b60038110156137475760006136ce868584600381106136c3576136c361421c565b602002015185613195565b60008881526019602052604081209192508291908685600381106136f4576136f461421c565b602002015181526020019081526020016000206000886001600160a01b03166001600160a01b0316815260200190815260200160002060008282546137399190614249565b9091555050506001016136a2565b505050505050565b600082600019048411830215820261376f5763ad251c276000526004601cfd5b50910281810615159190040190565b6001600160a01b0383166137a557604051639d3907e360e01b815260040160405180910390fd5b60008281526012602090815260408083206001600160a01b0387168452600201909152902054818110156137ec57604051634e9cc70f60e11b815260040160405180910390fd5b60009283526012602090815260408085206001600160a01b039096168552600290950190529290912091039055565b60008060116000815461382d906145b4565b918290555092915050565b600061384384610fa6565b6004546001600160a01b038581169216919091149150826000836138705761386b8383614249565b613872565b815b6000888152601260205260409020549091506138b2908890613895908490614249565b60008a815260126020526040902060010154612c48908590614249565b6138bd868884613a05565b836138ce576138ce60008885613a05565b6138d787611cdd565b156139355760006138e7886124ae565b60008181526012602052604090205490915061392790829061390a908790614249565b600084815260126020526040902060010154612c48908890614249565b61393360008286613a05565b505b60008781526012602090815260408083206001600160a01b038a168085526002909101909252822054909133917f63f1715b856071be1b955e9ae199dab3454f8aba9d970ba690fa6ac9268e701491899086908d61399281611cdd565b6040805196875260208701959095529385019290925260608401526080830152151560a082015287151560c082015260e00160405180910390a350505050505050565b600080516020614b8d8339815191525460ff1661160757604051638dfc202b60e01b815260040160405180910390fd5b60008281526012602090815260408083206001600160a01b038716845260020190915281208054839290613a3a908490614249565b9091555050505050565b7ff0c57e16840df040f15088dc2f81fe391c3923bec73e23a9662efc9c229c6a0054600160401b900460ff1661160757604051631afcd79f60e31b815260040160405180910390fd5b612dbc613a44565b613a9d613a44565b600080516020614b8d833981519152805460ff19169055565b60405180606001604052806003906020820280368337509192915050565b508054613ae090614277565b6000825580601f10613af0575050565b601f016020900490600052602060002090810190613b0e9190613b5c565b50565b6105bf806145ce83390190565b8260038101928215613b4c579160200282015b82811115613b4c578251825591602001919060010190613b31565b50613b58929150613b5c565b5090565b5b80821115613b585760008155600101613b5d565b6001600160a01b0381168114613b0e57600080fd5b803561267c81613b71565b600060208284031215613ba357600080fd5b81356114c281613b71565b60008060408385031215613bc157600080fd5b50508035926020909101359150565b600060208284031215613be257600080fd5b5035919050565b600080600060608486031215613bfe57600080fd5b833592506020840135613c1081613b71565b929592945050506040919091013590565b600080600060608486031215613c3657600080fd5b505081359360208301359350604090920135919050565b60008060408385031215613c6057600080fd5b8235613c6b81613b71565b946020939093013593505050565b60008083601f840112613c8b57600080fd5b5081356001600160401b03811115613ca257600080fd5b60208301915083602082850101111561207357600080fd5b600080600060408486031215613ccf57600080fd5b8335925060208401356001600160401b03811115613cec57600080fd5b613cf886828701613c79565b9497909650939450505050565b634e487b7160e01b600052604160045260246000fd5b60405161010081016001600160401b0381118282101715613d3e57613d3e613d05565b60405290565b600060408284031215613d5657600080fd5b604051604081018181106001600160401b0382111715613d7857613d78613d05565b604052823581526020928301359281019290925250919050565b600060608284031215613da457600080fd5b604051606081018181106001600160401b0382111715613dc657613dc6613d05565b80604052508091508235815260208301356020820152604083013560408201525092915050565b600060808284031215613dff57600080fd5b604051608081018181106001600160401b0382111715613e2157613e21613d05565b6040529050808235613e3281613b71565b81526020830135613e4281613b71565b60208201526040830135613e5581613b71565b60408201526060830135613e6881613b71565b6060919091015292915050565b6000806000806000858703610280811215613e8f57600080fd5b61010080821215613e9f57600080fd5b613ea7613d1b565b91508735613eb481613b71565b8252613ec260208901613b86565b602083015260408801356040830152606088013560608301526080880135608083015260a088013560a083015260c088013560c083015260e088013560e0830152819650613f1289828a01613d44565b95505050613f24876101408801613d92565b9250613f34876101a08801613ded565b9150613f44876102208801613d92565b90509295509295909350565b60008083601f840112613f6257600080fd5b5081356001600160401b03811115613f7957600080fd5b6020830191508360208260051b850101111561207357600080fd5b60008060208385031215613fa757600080fd5b82356001600160401b03811115613fbd57600080fd5b613fc985828601613f50565b90969095509350505050565b6020808252825182820181905260009190848201906040850190845b81811015611f0a57835183529284019291840191600101613ff1565b6000806040838503121561402057600080fd5b82359150602083013561403281613b71565b809150509250929050565b6000806000806000806060878903121561405657600080fd5b86356001600160401b038082111561406d57600080fd5b6140798a838b01613f50565b9098509650602089013591508082111561409257600080fd5b61409e8a838b01613f50565b909650945060408901359150808211156140b757600080fd5b506140c489828a01613f50565b979a9699509497509295939492505050565b60005b838110156140f15781810151838201526020016140d9565b50506000910152565b600081518084526141128160208601602086016140d6565b601f01601f19169290920160200192915050565b60608152600061413960608301866140fa565b602083019490945250901515604090910152919050565b60008060006060848603121561416557600080fd5b8335925060208401359150604084013561417e81613b71565b809150509250925092565b6000806020838503121561419c57600080fd5b82356001600160401b038111156141b257600080fd5b613fc985828601613c79565b6020815260006114c260208301846140fa565b634e487b7160e01b600052601160045260246000fd5b60008261420457634e487b7160e01b600052601260045260246000fd5b500490565b81810381811115610fa057610fa06141d1565b634e487b7160e01b600052603260045260246000fd5b8082028115828204841417610fa057610fa06141d1565b80820180821115610fa057610fa06141d1565b84815282846020830137602092019182015260400192915050565b600181811c9082168061428b57607f821691505b6020821081036142ab57634e487b7160e01b600052602260045260246000fd5b50919050565b601f8211156142f9576000816000526020600020601f850160051c810160208610156142da5750805b601f850160051c820191505b81811015613747578281556001016142e6565b505050565b81516001600160401b0381111561431757614317613d05565b61432b816143258454614277565b846142b1565b602080601f83116001811461436057600084156143485750858301515b600019600386901b1c1916600185901b178555613747565b600085815260208120601f198616915b8281101561438f57888601518255948401946001909101908401614370565b50858210156143ad5787850151600019600388901b60f8161c191681555b5050505050600190811b01905550565b6000808335601e198436030181126143d457600080fd5b8301803591506001600160401b038211156143ee57600080fd5b60200191503681900382131561207357600080fd5b8381526000835161441b8160208501602088016140d6565b60209201918201929092526040019392505050565b6001600160a01b03831681526040602082018190526000906124ef908301846140fa565b600083516144668184602088016140d6565b83519083019061447a8183602088016140d6565b01949350505050565b8183823760009101908152919050565b81835281816020850137506000828201602090810191909152601f909101601f19169091010190565b6020815260006124ef602083018486614493565b6001600160401b038311156144e7576144e7613d05565b6144fb836144f58354614277565b836142b1565b6000601f84116001811461452f57600085156145175750838201355b600019600387901b1c1916600186901b178355614589565b600083815260209020601f19861690835b828110156145605786850135825560209485019460019092019101614540565b508682101561457d5760001960f88860031b161c19848701351681555b505060018560011b0183555b5050505050565b6040815260006145a4604083018587614493565b9050826020830152949350505050565b6000600182016145c6576145c66141d1565b506001019056fe60a06040526040516105bf3803806105bf83398101604081905261002291610387565b61002c828261003e565b506001600160a01b031660805261047e565b610047826100fe565b6040516001600160a01b038316907f1cf3b03a6cf19fa2baba4df148e9dcabedea7f8a5c07840e207e5c089be95d3e90600090a28051156100f2576100ed826001600160a01b0316635c60da1b6040518163ffffffff1660e01b8152600401602060405180830381865afa1580156100c3573d6000803e3d6000fd5b505050506040513d601f19601f820116820180604052508101906100e79190610447565b82610211565b505050565b6100fa610288565b5050565b806001600160a01b03163b60000361013957604051631933b43b60e21b81526001600160a01b03821660048201526024015b60405180910390fd5b807fa3f0ad74e5423aebfd80d3ef4346578335a9a72aeaee59ff6cb3582b35133d5080546001600160a01b0319166001600160a01b0392831617905560408051635c60da1b60e01b81529051600092841691635c60da1b9160048083019260209291908290030181865afa1580156101b5573d6000803e3d6000fd5b505050506040513d601f19601f820116820180604052508101906101d99190610447565b9050806001600160a01b03163b6000036100fa57604051634c9c8ce360e01b81526001600160a01b0382166004820152602401610130565b6060600080846001600160a01b03168460405161022e9190610462565b600060405180830381855af49150503d8060008114610269576040519150601f19603f3d011682016040523d82523d6000602084013e61026e565b606091505b50909250905061027f8583836102a9565b95945050505050565b34156102a75760405163b398979f60e01b815260040160405180910390fd5b565b6060826102be576102b982610308565b610301565b81511580156102d557506001600160a01b0384163b155b156102fe57604051639996b31560e01b81526001600160a01b0385166004820152602401610130565b50805b9392505050565b8051156103185780518082602001fd5b604051630a12f52160e11b815260040160405180910390fd5b80516001600160a01b038116811461034857600080fd5b919050565b634e487b7160e01b600052604160045260246000fd5b60005b8381101561037e578181015183820152602001610366565b50506000910152565b6000806040838503121561039a57600080fd5b6103a383610331565b60208401519092506001600160401b03808211156103c057600080fd5b818501915085601f8301126103d457600080fd5b8151818111156103e6576103e661034d565b604051601f8201601f19908116603f0116810190838211818310171561040e5761040e61034d565b8160405282815288602084870101111561042757600080fd5b610438836020830160208801610363565b80955050505050509250929050565b60006020828403121561045957600080fd5b61030182610331565b60008251610474818460208701610363565b9190910192915050565b6080516101276104986000396000601e01526101276000f3fe6080604052600a600c565b005b60186014601a565b60a0565b565b60007f00000000000000000000000000000000000000000000000000000000000000006001600160a01b0316635c60da1b6040518163ffffffff1660e01b8152600401602060405180830381865afa1580156079573d6000803e3d6000fd5b505050506040513d601f19601f82011682018060405250810190609b919060c3565b905090565b3660008037600080366000845af43d6000803e80801560be573d6000f35b3d6000fd5b60006020828403121560d457600080fd5b81516001600160a01b038116811460ea57600080fd5b939250505056fea2646970667358221220d6e6c1436b2188572e3814403602323a5b4cb008e579e08617a8de233a0dd34d64736f6c63430008190033cd5ed15c6e187e77e9aee88184c21f4f2182ab5827cb3b7e07fbedcd63f033009b779b17422d0df92223018b32b4d1fa46e071723d6817e2486d003becc55f00a2646970667358221220bf4c48b28da2b4145cf5a83936e251df67ad643fb350a32012e040fd9fa57e0f64736f6c63430008190033","linkReferences":{}},"methodIdentifiers":{"SET_ADMIN()":"4d592c6a","SET_EXIT_FEE()":"90855592","atomConfig()":"7f833f04","atomDepositFractionAmount(uint256,uint256)":"c26388e3","atoms(uint256)":"f315a94e","atomsByHash(bytes32)":"e3b764af","batchCreateAtom(bytes[])":"65f64685","batchCreateTriple(uint256[],uint256[],uint256[])":"8daf7443","cancelOperation(bytes32,bytes)":"de3cca60","computeAtomWalletAddr(uint256)":"0ac819db","convertToAssets(uint256,uint256)":"181e7b3b","convertToShares(uint256,uint256)":"db2088f4","count()":"06661abd","createAtom(bytes)":"f10c9f9b","createTriple(uint256,uint256,uint256)":"39c4f49c","currentSharePrice(uint256)":"ee9dd98f","deployAtomWallet(uint256)":"dc5adb8c","depositAtom(address,uint256)":"441d1c2f","depositTriple(address,uint256)":"859aa971","entryFeeAmount(uint256,uint256)":"04c89bc6","exitFeeAmount(uint256,uint256)":"ae0a1542","generalConfig()":"927a97a1","getAtomCost()":"33332d39","getAtomWarden()":"84e100db","getCounterIdFromTriple(uint256)":"bb7dd379","getDepositFees(uint256,uint256)":"a4ddc786","getDepositSharesAndFees(uint256,uint256)":"67ab7594","getRedeemAssetsAndFees(uint256,uint256)":"1d35900a","getTripleAtoms(uint256)":"0cde801b","getTripleCost()":"0d65c91c","getVaultStateForUser(uint256,address)":"89065256","init((address,address,uint256,uint256,uint256,uint256,uint256,uint256),(uint256,uint256),(uint256,uint256,uint256),(address,address,address,address),(uint256,uint256,uint256))":"61d2a657","isTriple(uint256)":"c61703ac","isTripleId(uint256)":"66e34a33","maxRedeem(address,uint256)":"4abe4137","pause()":"8456cb59","paused()":"5c975abb","previewDeposit(uint256,uint256)":"7a7af70d","previewRedeem(uint256,uint256)":"bbec4d06","protocolFeeAmount(uint256,uint256)":"39a38449","redeemAtom(uint256,address,uint256)":"3800c5c4","redeemTriple(uint256,address,uint256)":"b790e672","scheduleOperation(bytes32,bytes)":"56d54d68","setAdmin(address)":"704b6c02","setAtomCreationProtocolFee(uint256)":"f903ff72","setAtomDepositFractionForTriple(uint256)":"ab238565","setAtomDepositFractionOnTripleCreation(uint256)":"2dbc4982","setAtomUriMaxLength(uint256)":"340a2812","setAtomWalletInitialDepositAmount(uint256)":"2dd42644","setAtomWarden(address)":"001fc87d","setEntryFee(uint256,uint256)":"5408eec9","setExitFee(uint256,uint256)":"9f49b60e","setMinDeposit(uint256)":"8fcc9cfb","setMinShare(uint256)":"2a22fec5","setProtocolFee(uint256,uint256)":"240de277","setProtocolVault(address)":"39c5dec7","setTripleCreationProtocolFee(uint256)":"6cc18d40","timelocks(bytes32)":"c9ceddb8","tripleAtomShares(uint256,uint256,address)":"db04a47c","tripleConfig()":"1e19e2c8","tripleHash(uint256)":"13aaab97","tripleHashFromAtoms(uint256,uint256,uint256)":"7c373661","triples(uint256,uint256)":"cfc15f15","triplesByHash(bytes32)":"59b125d2","unpause()":"3f4ba83a","vaultFees(uint256)":"22061379","vaults(uint256)":"8c64ea4a","walletConfig()":"d34ddc05"},"storageLayout":{"storage":[{"astId":62219,"contract":"src/EthMultiVault.sol:EthMultiVault","label":"generalConfig","offset":0,"slot":"0","type":"t_struct(GeneralConfig)65506_storage"},{"astId":62222,"contract":"src/EthMultiVault.sol:EthMultiVault","label":"atomConfig","offset":0,"slot":"8","type":"t_struct(AtomConfig)65514_storage"},{"astId":62225,"contract":"src/EthMultiVault.sol:EthMultiVault","label":"tripleConfig","offset":0,"slot":"10","type":"t_struct(TripleConfig)65525_storage"},{"astId":62228,"contract":"src/EthMultiVault.sol:EthMultiVault","label":"walletConfig","offset":0,"slot":"13","type":"t_struct(WalletConfig)65540_storage"},{"astId":62231,"contract":"src/EthMultiVault.sol:EthMultiVault","label":"count","offset":0,"slot":"17","type":"t_uint256"},{"astId":62237,"contract":"src/EthMultiVault.sol:EthMultiVault","label":"vaults","offset":0,"slot":"18","type":"t_mapping(t_uint256,t_struct(VaultState)65550_storage)"},{"astId":62243,"contract":"src/EthMultiVault.sol:EthMultiVault","label":"vaultFees","offset":0,"slot":"19","type":"t_mapping(t_uint256,t_struct(VaultFees)65561_storage)"},{"astId":62248,"contract":"src/EthMultiVault.sol:EthMultiVault","label":"atoms","offset":0,"slot":"20","type":"t_mapping(t_uint256,t_bytes_storage)"},{"astId":62252,"contract":"src/EthMultiVault.sol:EthMultiVault","label":"atomsByHash","offset":0,"slot":"21","type":"t_mapping(t_bytes32,t_uint256)"},{"astId":62258,"contract":"src/EthMultiVault.sol:EthMultiVault","label":"triples","offset":0,"slot":"22","type":"t_mapping(t_uint256,t_array(t_uint256)3_storage)"},{"astId":62262,"contract":"src/EthMultiVault.sol:EthMultiVault","label":"triplesByHash","offset":0,"slot":"23","type":"t_mapping(t_bytes32,t_uint256)"},{"astId":62266,"contract":"src/EthMultiVault.sol:EthMultiVault","label":"isTriple","offset":0,"slot":"24","type":"t_mapping(t_uint256,t_bool)"},{"astId":62275,"contract":"src/EthMultiVault.sol:EthMultiVault","label":"tripleAtomShares","offset":0,"slot":"25","type":"t_mapping(t_uint256,t_mapping(t_uint256,t_mapping(t_address,t_uint256)))"},{"astId":62281,"contract":"src/EthMultiVault.sol:EthMultiVault","label":"timelocks","offset":0,"slot":"26","type":"t_mapping(t_bytes32,t_struct(Timelock)65572_storage)"}],"types":{"t_address":{"encoding":"inplace","label":"address","numberOfBytes":"20"},"t_array(t_uint256)3_storage":{"encoding":"inplace","label":"uint256[3]","numberOfBytes":"96","base":"t_uint256"},"t_bool":{"encoding":"inplace","label":"bool","numberOfBytes":"1"},"t_bytes32":{"encoding":"inplace","label":"bytes32","numberOfBytes":"32"},"t_bytes_storage":{"encoding":"bytes","label":"bytes","numberOfBytes":"32"},"t_contract(IPermit2)66149":{"encoding":"inplace","label":"contract IPermit2","numberOfBytes":"20"},"t_mapping(t_address,t_uint256)":{"encoding":"mapping","key":"t_address","label":"mapping(address => uint256)","numberOfBytes":"32","value":"t_uint256"},"t_mapping(t_bytes32,t_struct(Timelock)65572_storage)":{"encoding":"mapping","key":"t_bytes32","label":"mapping(bytes32 => struct IEthMultiVault.Timelock)","numberOfBytes":"32","value":"t_struct(Timelock)65572_storage"},"t_mapping(t_bytes32,t_uint256)":{"encoding":"mapping","key":"t_bytes32","label":"mapping(bytes32 => uint256)","numberOfBytes":"32","value":"t_uint256"},"t_mapping(t_uint256,t_array(t_uint256)3_storage)":{"encoding":"mapping","key":"t_uint256","label":"mapping(uint256 => uint256[3])","numberOfBytes":"32","value":"t_array(t_uint256)3_storage"},"t_mapping(t_uint256,t_bool)":{"encoding":"mapping","key":"t_uint256","label":"mapping(uint256 => bool)","numberOfBytes":"32","value":"t_bool"},"t_mapping(t_uint256,t_bytes_storage)":{"encoding":"mapping","key":"t_uint256","label":"mapping(uint256 => bytes)","numberOfBytes":"32","value":"t_bytes_storage"},"t_mapping(t_uint256,t_mapping(t_address,t_uint256))":{"encoding":"mapping","key":"t_uint256","label":"mapping(uint256 => mapping(address => uint256))","numberOfBytes":"32","value":"t_mapping(t_address,t_uint256)"},"t_mapping(t_uint256,t_mapping(t_uint256,t_mapping(t_address,t_uint256)))":{"encoding":"mapping","key":"t_uint256","label":"mapping(uint256 => mapping(uint256 => mapping(address => uint256)))","numberOfBytes":"32","value":"t_mapping(t_uint256,t_mapping(t_address,t_uint256))"},"t_mapping(t_uint256,t_struct(VaultFees)65561_storage)":{"encoding":"mapping","key":"t_uint256","label":"mapping(uint256 => struct IEthMultiVault.VaultFees)","numberOfBytes":"32","value":"t_struct(VaultFees)65561_storage"},"t_mapping(t_uint256,t_struct(VaultState)65550_storage)":{"encoding":"mapping","key":"t_uint256","label":"mapping(uint256 => struct IEthMultiVault.VaultState)","numberOfBytes":"32","value":"t_struct(VaultState)65550_storage"},"t_struct(AtomConfig)65514_storage":{"encoding":"inplace","label":"struct IEthMultiVault.AtomConfig","numberOfBytes":"64","members":[{"astId":65510,"contract":"src/EthMultiVault.sol:EthMultiVault","label":"atomWalletInitialDepositAmount","offset":0,"slot":"0","type":"t_uint256"},{"astId":65513,"contract":"src/EthMultiVault.sol:EthMultiVault","label":"atomCreationProtocolFee","offset":0,"slot":"1","type":"t_uint256"}]},"t_struct(GeneralConfig)65506_storage":{"encoding":"inplace","label":"struct IEthMultiVault.GeneralConfig","numberOfBytes":"256","members":[{"astId":65484,"contract":"src/EthMultiVault.sol:EthMultiVault","label":"admin","offset":0,"slot":"0","type":"t_address"},{"astId":65487,"contract":"src/EthMultiVault.sol:EthMultiVault","label":"protocolVault","offset":0,"slot":"1","type":"t_address"},{"astId":65490,"contract":"src/EthMultiVault.sol:EthMultiVault","label":"feeDenominator","offset":0,"slot":"2","type":"t_uint256"},{"astId":65493,"contract":"src/EthMultiVault.sol:EthMultiVault","label":"minDeposit","offset":0,"slot":"3","type":"t_uint256"},{"astId":65496,"contract":"src/EthMultiVault.sol:EthMultiVault","label":"minShare","offset":0,"slot":"4","type":"t_uint256"},{"astId":65499,"contract":"src/EthMultiVault.sol:EthMultiVault","label":"atomUriMaxLength","offset":0,"slot":"5","type":"t_uint256"},{"astId":65502,"contract":"src/EthMultiVault.sol:EthMultiVault","label":"decimalPrecision","offset":0,"slot":"6","type":"t_uint256"},{"astId":65505,"contract":"src/EthMultiVault.sol:EthMultiVault","label":"minDelay","offset":0,"slot":"7","type":"t_uint256"}]},"t_struct(Timelock)65572_storage":{"encoding":"inplace","label":"struct IEthMultiVault.Timelock","numberOfBytes":"96","members":[{"astId":65565,"contract":"src/EthMultiVault.sol:EthMultiVault","label":"data","offset":0,"slot":"0","type":"t_bytes_storage"},{"astId":65568,"contract":"src/EthMultiVault.sol:EthMultiVault","label":"readyTime","offset":0,"slot":"1","type":"t_uint256"},{"astId":65571,"contract":"src/EthMultiVault.sol:EthMultiVault","label":"executed","offset":0,"slot":"2","type":"t_bool"}]},"t_struct(TripleConfig)65525_storage":{"encoding":"inplace","label":"struct IEthMultiVault.TripleConfig","numberOfBytes":"96","members":[{"astId":65518,"contract":"src/EthMultiVault.sol:EthMultiVault","label":"tripleCreationProtocolFee","offset":0,"slot":"0","type":"t_uint256"},{"astId":65521,"contract":"src/EthMultiVault.sol:EthMultiVault","label":"atomDepositFractionOnTripleCreation","offset":0,"slot":"1","type":"t_uint256"},{"astId":65524,"contract":"src/EthMultiVault.sol:EthMultiVault","label":"atomDepositFractionForTriple","offset":0,"slot":"2","type":"t_uint256"}]},"t_struct(VaultFees)65561_storage":{"encoding":"inplace","label":"struct IEthMultiVault.VaultFees","numberOfBytes":"96","members":[{"astId":65554,"contract":"src/EthMultiVault.sol:EthMultiVault","label":"entryFee","offset":0,"slot":"0","type":"t_uint256"},{"astId":65557,"contract":"src/EthMultiVault.sol:EthMultiVault","label":"exitFee","offset":0,"slot":"1","type":"t_uint256"},{"astId":65560,"contract":"src/EthMultiVault.sol:EthMultiVault","label":"protocolFee","offset":0,"slot":"2","type":"t_uint256"}]},"t_struct(VaultState)65550_storage":{"encoding":"inplace","label":"struct IEthMultiVault.VaultState","numberOfBytes":"96","members":[{"astId":65543,"contract":"src/EthMultiVault.sol:EthMultiVault","label":"totalAssets","offset":0,"slot":"0","type":"t_uint256"},{"astId":65545,"contract":"src/EthMultiVault.sol:EthMultiVault","label":"totalShares","offset":0,"slot":"1","type":"t_uint256"},{"astId":65549,"contract":"src/EthMultiVault.sol:EthMultiVault","label":"balanceOf","offset":0,"slot":"2","type":"t_mapping(t_address,t_uint256)"}]},"t_struct(WalletConfig)65540_storage":{"encoding":"inplace","label":"struct IEthMultiVault.WalletConfig","numberOfBytes":"128","members":[{"astId":65530,"contract":"src/EthMultiVault.sol:EthMultiVault","label":"permit2","offset":0,"slot":"0","type":"t_contract(IPermit2)66149"},{"astId":65533,"contract":"src/EthMultiVault.sol:EthMultiVault","label":"entryPoint","offset":0,"slot":"1","type":"t_address"},{"astId":65536,"contract":"src/EthMultiVault.sol:EthMultiVault","label":"atomWarden","offset":0,"slot":"2","type":"t_address"},{"astId":65539,"contract":"src/EthMultiVault.sol:EthMultiVault","label":"atomWalletBeacon","offset":0,"slot":"3","type":"t_address"}]},"t_uint256":{"encoding":"inplace","label":"uint256","numberOfBytes":"32"}}},"id":80}