{"abi":[{"type":"fallback","stateMutability":"payable"},{"type":"receive","stateMutability":"payable"},{"type":"function","name":"SET_ADMIN","inputs":[],"outputs":[{"name":"","type":"bytes32","internalType":"bytes32"}],"stateMutability":"view"},{"type":"function","name":"SET_EXIT_FEE","inputs":[],"outputs":[{"name":"","type":"bytes32","internalType":"bytes32"}],"stateMutability":"view"},{"type":"function","name":"atomConfig","inputs":[],"outputs":[{"name":"atomWalletInitialDepositAmount","type":"uint256","internalType":"uint256"},{"name":"atomCreationProtocolFee","type":"uint256","internalType":"uint256"}],"stateMutability":"view"},{"type":"function","name":"atomDepositFractionAmount","inputs":[{"name":"assets","type":"uint256","internalType":"uint256"},{"name":"id","type":"uint256","internalType":"uint256"}],"outputs":[{"name":"","type":"uint256","internalType":"uint256"}],"stateMutability":"view"},{"type":"function","name":"atoms","inputs":[{"name":"atomId","type":"uint256","internalType":"uint256"}],"outputs":[{"name":"atomData","type":"bytes","internalType":"bytes"}],"stateMutability":"view"},{"type":"function","name":"atomsByHash","inputs":[{"name":"atomHash","type":"bytes32","internalType":"bytes32"}],"outputs":[{"name":"atomId","type":"uint256","internalType":"uint256"}],"stateMutability":"view"},{"type":"function","name":"batchCreateAtom","inputs":[{"name":"atomUris","type":"bytes[]","internalType":"bytes[]"}],"outputs":[{"name":"","type":"uint256[]","internalType":"uint256[]"}],"stateMutability":"payable"},{"type":"function","name":"batchCreateTriple","inputs":[{"name":"subjectIds","type":"uint256[]","internalType":"uint256[]"},{"name":"predicateIds","type":"uint256[]","internalType":"uint256[]"},{"name":"objectIds","type":"uint256[]","internalType":"uint256[]"}],"outputs":[{"name":"","type":"uint256[]","internalType":"uint256[]"}],"stateMutability":"payable"},{"type":"function","name":"cancelOperation","inputs":[{"name":"operationId","type":"bytes32","internalType":"bytes32"},{"name":"data","type":"bytes","internalType":"bytes"}],"outputs":[],"stateMutability":"nonpayable"},{"type":"function","name":"computeAtomWalletAddr","inputs":[{"name":"id","type":"uint256","internalType":"uint256"}],"outputs":[{"name":"","type":"address","internalType":"address"}],"stateMutability":"view"},{"type":"function","name":"convertToAssets","inputs":[{"name":"shares","type":"uint256","internalType":"uint256"},{"name":"id","type":"uint256","internalType":"uint256"}],"outputs":[{"name":"","type":"uint256","internalType":"uint256"}],"stateMutability":"view"},{"type":"function","name":"convertToShares","inputs":[{"name":"assets","type":"uint256","internalType":"uint256"},{"name":"id","type":"uint256","internalType":"uint256"}],"outputs":[{"name":"","type":"uint256","internalType":"uint256"}],"stateMutability":"view"},{"type":"function","name":"count","inputs":[],"outputs":[{"name":"","type":"uint256","internalType":"uint256"}],"stateMutability":"view"},{"type":"function","name":"createAtom","inputs":[{"name":"atomUri","type":"bytes","internalType":"bytes"}],"outputs":[{"name":"","type":"uint256","internalType":"uint256"}],"stateMutability":"payable"},{"type":"function","name":"createTriple","inputs":[{"name":"subjectId","type":"uint256","internalType":"uint256"},{"name":"predicateId","type":"uint256","internalType":"uint256"},{"name":"objectId","type":"uint256","internalType":"uint256"}],"outputs":[{"name":"","type":"uint256","internalType":"uint256"}],"stateMutability":"payable"},{"type":"function","name":"currentSharePrice","inputs":[{"name":"id","type":"uint256","internalType":"uint256"}],"outputs":[{"name":"","type":"uint256","internalType":"uint256"}],"stateMutability":"view"},{"type":"function","name":"deployAtomWallet","inputs":[{"name":"atomId","type":"uint256","internalType":"uint256"}],"outputs":[{"name":"","type":"address","internalType":"address"}],"stateMutability":"nonpayable"},{"type":"function","name":"depositAtom","inputs":[{"name":"receiver","type":"address","internalType":"address"},{"name":"id","type":"uint256","internalType":"uint256"}],"outputs":[{"name":"","type":"uint256","internalType":"uint256"}],"stateMutability":"payable"},{"type":"function","name":"depositTriple","inputs":[{"name":"receiver","type":"address","internalType":"address"},{"name":"id","type":"uint256","internalType":"uint256"}],"outputs":[{"name":"","type":"uint256","internalType":"uint256"}],"stateMutability":"payable"},{"type":"function","name":"entryFeeAmount","inputs":[{"name":"assets","type":"uint256","internalType":"uint256"},{"name":"id","type":"uint256","internalType":"uint256"}],"outputs":[{"name":"","type":"uint256","internalType":"uint256"}],"stateMutability":"view"},{"type":"function","name":"exitFeeAmount","inputs":[{"name":"assets","type":"uint256","internalType":"uint256"},{"name":"id","type":"uint256","internalType":"uint256"}],"outputs":[{"name":"","type":"uint256","internalType":"uint256"}],"stateMutability":"view"},{"type":"function","name":"generalConfig","inputs":[],"outputs":[{"name":"admin","type":"address","internalType":"address"},{"name":"protocolVault","type":"address","internalType":"address"},{"name":"feeDenominator","type":"uint256","internalType":"uint256"},{"name":"minDeposit","type":"uint256","internalType":"uint256"},{"name":"minShare","type":"uint256","internalType":"uint256"},{"name":"atomUriMaxLength","type":"uint256","internalType":"uint256"},{"name":"decimalPrecision","type":"uint256","internalType":"uint256"},{"name":"minDelay","type":"uint256","internalType":"uint256"}],"stateMutability":"view"},{"type":"function","name":"getAtomCost","inputs":[],"outputs":[{"name":"","type":"uint256","internalType":"uint256"}],"stateMutability":"view"},{"type":"function","name":"getAtomWarden","inputs":[],"outputs":[{"name":"","type":"address","internalType":"address"}],"stateMutability":"view"},{"type":"function","name":"getCounterIdFromTriple","inputs":[{"name":"id","type":"uint256","internalType":"uint256"}],"outputs":[{"name":"","type":"uint256","internalType":"uint256"}],"stateMutability":"pure"},{"type":"function","name":"getDepositFees","inputs":[{"name":"assets","type":"uint256","internalType":"uint256"},{"name":"id","type":"uint256","internalType":"uint256"}],"outputs":[{"name":"","type":"uint256","internalType":"uint256"}],"stateMutability":"view"},{"type":"function","name":"getDepositSharesAndFees","inputs":[{"name":"assets","type":"uint256","internalType":"uint256"},{"name":"id","type":"uint256","internalType":"uint256"}],"outputs":[{"name":"","type":"uint256","internalType":"uint256"},{"name":"","type":"uint256","internalType":"uint256"},{"name":"","type":"uint256","internalType":"uint256"},{"name":"","type":"uint256","internalType":"uint256"}],"stateMutability":"view"},{"type":"function","name":"getRedeemAssetsAndFees","inputs":[{"name":"shares","type":"uint256","internalType":"uint256"},{"name":"id","type":"uint256","internalType":"uint256"}],"outputs":[{"name":"","type":"uint256","internalType":"uint256"},{"name":"","type":"uint256","internalType":"uint256"},{"name":"","type":"uint256","internalType":"uint256"},{"name":"","type":"uint256","internalType":"uint256"}],"stateMutability":"view"},{"type":"function","name":"getTripleAtoms","inputs":[{"name":"id","type":"uint256","internalType":"uint256"}],"outputs":[{"name":"","type":"uint256","internalType":"uint256"},{"name":"","type":"uint256","internalType":"uint256"},{"name":"","type":"uint256","internalType":"uint256"}],"stateMutability":"view"},{"type":"function","name":"getTripleCost","inputs":[],"outputs":[{"name":"","type":"uint256","internalType":"uint256"}],"stateMutability":"view"},{"type":"function","name":"getVaultStateForUser","inputs":[{"name":"vaultId","type":"uint256","internalType":"uint256"},{"name":"receiver","type":"address","internalType":"address"}],"outputs":[{"name":"","type":"uint256","internalType":"uint256"},{"name":"","type":"uint256","internalType":"uint256"}],"stateMutability":"view"},{"type":"function","name":"init","inputs":[{"name":"_generalConfig","type":"tuple","internalType":"struct IEthMultiVault.GeneralConfig","components":[{"name":"admin","type":"address","internalType":"address"},{"name":"protocolVault","type":"address","internalType":"address"},{"name":"feeDenominator","type":"uint256","internalType":"uint256"},{"name":"minDeposit","type":"uint256","internalType":"uint256"},{"name":"minShare","type":"uint256","internalType":"uint256"},{"name":"atomUriMaxLength","type":"uint256","internalType":"uint256"},{"name":"decimalPrecision","type":"uint256","internalType":"uint256"},{"name":"minDelay","type":"uint256","internalType":"uint256"}]},{"name":"_atomConfig","type":"tuple","internalType":"struct IEthMultiVault.AtomConfig","components":[{"name":"atomWalletInitialDepositAmount","type":"uint256","internalType":"uint256"},{"name":"atomCreationProtocolFee","type":"uint256","internalType":"uint256"}]},{"name":"_tripleConfig","type":"tuple","internalType":"struct IEthMultiVault.TripleConfig","components":[{"name":"tripleCreationProtocolFee","type":"uint256","internalType":"uint256"},{"name":"atomDepositFractionOnTripleCreation","type":"uint256","internalType":"uint256"},{"name":"atomDepositFractionForTriple","type":"uint256","internalType":"uint256"}]},{"name":"_walletConfig","type":"tuple","internalType":"struct IEthMultiVault.WalletConfig","components":[{"name":"permit2","type":"address","internalType":"contract IPermit2"},{"name":"entryPoint","type":"address","internalType":"address"},{"name":"atomWarden","type":"address","internalType":"address"},{"name":"atomWalletBeacon","type":"address","internalType":"address"}]},{"name":"_defaultVaultFees","type":"tuple","internalType":"struct IEthMultiVault.VaultFees","components":[{"name":"entryFee","type":"uint256","internalType":"uint256"},{"name":"exitFee","type":"uint256","internalType":"uint256"},{"name":"protocolFee","type":"uint256","internalType":"uint256"}]}],"outputs":[],"stateMutability":"nonpayable"},{"type":"function","name":"isTriple","inputs":[{"name":"vaultId","type":"uint256","internalType":"uint256"}],"outputs":[{"name":"isTriple","type":"bool","internalType":"bool"}],"stateMutability":"view"},{"type":"function","name":"isTripleId","inputs":[{"name":"id","type":"uint256","internalType":"uint256"}],"outputs":[{"name":"","type":"bool","internalType":"bool"}],"stateMutability":"view"},{"type":"function","name":"maxRedeem","inputs":[{"name":"owner","type":"address","internalType":"address"},{"name":"id","type":"uint256","internalType":"uint256"}],"outputs":[{"name":"","type":"uint256","internalType":"uint256"}],"stateMutability":"view"},{"type":"function","name":"pause","inputs":[],"outputs":[],"stateMutability":"nonpayable"},{"type":"function","name":"paused","inputs":[],"outputs":[{"name":"","type":"bool","internalType":"bool"}],"stateMutability":"view"},{"type":"function","name":"previewDeposit","inputs":[{"name":"assets","type":"uint256","internalType":"uint256"},{"name":"id","type":"uint256","internalType":"uint256"}],"outputs":[{"name":"","type":"uint256","internalType":"uint256"}],"stateMutability":"view"},{"type":"function","name":"previewRedeem","inputs":[{"name":"shares","type":"uint256","internalType":"uint256"},{"name":"id","type":"uint256","internalType":"uint256"}],"outputs":[{"name":"","type":"uint256","internalType":"uint256"}],"stateMutability":"view"},{"type":"function","name":"protocolFeeAmount","inputs":[{"name":"assets","type":"uint256","internalType":"uint256"},{"name":"id","type":"uint256","internalType":"uint256"}],"outputs":[{"name":"","type":"uint256","internalType":"uint256"}],"stateMutability":"view"},{"type":"function","name":"redeemAtom","inputs":[{"name":"shares","type":"uint256","internalType":"uint256"},{"name":"receiver","type":"address","internalType":"address"},{"name":"id","type":"uint256","internalType":"uint256"}],"outputs":[{"name":"","type":"uint256","internalType":"uint256"}],"stateMutability":"nonpayable"},{"type":"function","name":"redeemTriple","inputs":[{"name":"shares","type":"uint256","internalType":"uint256"},{"name":"receiver","type":"address","internalType":"address"},{"name":"id","type":"uint256","internalType":"uint256"}],"outputs":[{"name":"","type":"uint256","internalType":"uint256"}],"stateMutability":"nonpayable"},{"type":"function","name":"scheduleOperation","inputs":[{"name":"operationId","type":"bytes32","internalType":"bytes32"},{"name":"data","type":"bytes","internalType":"bytes"}],"outputs":[],"stateMutability":"nonpayable"},{"type":"function","name":"setAdmin","inputs":[{"name":"admin","type":"address","internalType":"address"}],"outputs":[],"stateMutability":"nonpayable"},{"type":"function","name":"setAtomCreationProtocolFee","inputs":[{"name":"atomCreationProtocolFee","type":"uint256","internalType":"uint256"}],"outputs":[],"stateMutability":"nonpayable"},{"type":"function","name":"setAtomDepositFractionForTriple","inputs":[{"name":"atomDepositFractionForTriple","type":"uint256","internalType":"uint256"}],"outputs":[],"stateMutability":"nonpayable"},{"type":"function","name":"setAtomDepositFractionOnTripleCreation","inputs":[{"name":"atomDepositFractionOnTripleCreation","type":"uint256","internalType":"uint256"}],"outputs":[],"stateMutability":"nonpayable"},{"type":"function","name":"setAtomUriMaxLength","inputs":[{"name":"atomUriMaxLength","type":"uint256","internalType":"uint256"}],"outputs":[],"stateMutability":"nonpayable"},{"type":"function","name":"setAtomWalletInitialDepositAmount","inputs":[{"name":"atomWalletInitialDepositAmount","type":"uint256","internalType":"uint256"}],"outputs":[],"stateMutability":"nonpayable"},{"type":"function","name":"setAtomWarden","inputs":[{"name":"atomWarden","type":"address","internalType":"address"}],"outputs":[],"stateMutability":"nonpayable"},{"type":"function","name":"setEntryFee","inputs":[{"name":"id","type":"uint256","internalType":"uint256"},{"name":"entryFee","type":"uint256","internalType":"uint256"}],"outputs":[],"stateMutability":"nonpayable"},{"type":"function","name":"setExitFee","inputs":[{"name":"id","type":"uint256","internalType":"uint256"},{"name":"exitFee","type":"uint256","internalType":"uint256"}],"outputs":[],"stateMutability":"nonpayable"},{"type":"function","name":"setMinDeposit","inputs":[{"name":"minDeposit","type":"uint256","internalType":"uint256"}],"outputs":[],"stateMutability":"nonpayable"},{"type":"function","name":"setMinShare","inputs":[{"name":"minShare","type":"uint256","internalType":"uint256"}],"outputs":[],"stateMutability":"nonpayable"},{"type":"function","name":"setProtocolFee","inputs":[{"name":"id","type":"uint256","internalType":"uint256"},{"name":"protocolFee","type":"uint256","internalType":"uint256"}],"outputs":[],"stateMutability":"nonpayable"},{"type":"function","name":"setProtocolVault","inputs":[{"name":"protocolVault","type":"address","internalType":"address"}],"outputs":[],"stateMutability":"nonpayable"},{"type":"function","name":"setTripleCreationProtocolFee","inputs":[{"name":"tripleCreationProtocolFee","type":"uint256","internalType":"uint256"}],"outputs":[],"stateMutability":"nonpayable"},{"type":"function","name":"timelocks","inputs":[{"name":"operationHash","type":"bytes32","internalType":"bytes32"}],"outputs":[{"name":"data","type":"bytes","internalType":"bytes"},{"name":"readyTime","type":"uint256","internalType":"uint256"},{"name":"executed","type":"bool","internalType":"bool"}],"stateMutability":"view"},{"type":"function","name":"tripleAtomShares","inputs":[{"name":"tripleId","type":"uint256","internalType":"uint256"},{"name":"atomId","type":"uint256","internalType":"uint256"},{"name":"account","type":"address","internalType":"address"}],"outputs":[{"name":"balance","type":"uint256","internalType":"uint256"}],"stateMutability":"view"},{"type":"function","name":"tripleConfig","inputs":[],"outputs":[{"name":"tripleCreationProtocolFee","type":"uint256","internalType":"uint256"},{"name":"atomDepositFractionOnTripleCreation","type":"uint256","internalType":"uint256"},{"name":"atomDepositFractionForTriple","type":"uint256","internalType":"uint256"}],"stateMutability":"view"},{"type":"function","name":"tripleHash","inputs":[{"name":"id","type":"uint256","internalType":"uint256"}],"outputs":[{"name":"","type":"bytes32","internalType":"bytes32"}],"stateMutability":"view"},{"type":"function","name":"tripleHashFromAtoms","inputs":[{"name":"subjectId","type":"uint256","internalType":"uint256"},{"name":"predicateId","type":"uint256","internalType":"uint256"},{"name":"objectId","type":"uint256","internalType":"uint256"}],"outputs":[{"name":"","type":"bytes32","internalType":"bytes32"}],"stateMutability":"pure"},{"type":"function","name":"triples","inputs":[{"name":"tripleId","type":"uint256","internalType":"uint256"},{"name":"","type":"uint256","internalType":"uint256"}],"outputs":[{"name":"tripleAtomIds","type":"uint256","internalType":"uint256"}],"stateMutability":"view"},{"type":"function","name":"triplesByHash","inputs":[{"name":"tripleHash","type":"bytes32","internalType":"bytes32"}],"outputs":[{"name":"tripleId","type":"uint256","internalType":"uint256"}],"stateMutability":"view"},{"type":"function","name":"unpause","inputs":[],"outputs":[],"stateMutability":"nonpayable"},{"type":"function","name":"vaultFees","inputs":[{"name":"vaultId","type":"uint256","internalType":"uint256"}],"outputs":[{"name":"entryFee","type":"uint256","internalType":"uint256"},{"name":"exitFee","type":"uint256","internalType":"uint256"},{"name":"protocolFee","type":"uint256","internalType":"uint256"}],"stateMutability":"view"},{"type":"function","name":"vaults","inputs":[{"name":"vaultId","type":"uint256","internalType":"uint256"}],"outputs":[{"name":"totalAssets","type":"uint256","internalType":"uint256"},{"name":"totalShares","type":"uint256","internalType":"uint256"}],"stateMutability":"view"},{"type":"function","name":"walletConfig","inputs":[],"outputs":[{"name":"permit2","type":"address","internalType":"contract IPermit2"},{"name":"entryPoint","type":"address","internalType":"address"},{"name":"atomWarden","type":"address","internalType":"address"},{"name":"atomWalletBeacon","type":"address","internalType":"address"}],"stateMutability":"view"},{"type":"event","name":"AtomCreated","inputs":[{"name":"creator","type":"address","indexed":true,"internalType":"address"},{"name":"atomWallet","type":"address","indexed":true,"internalType":"address"},{"name":"atomData","type":"bytes","indexed":false,"internalType":"bytes"},{"name":"vaultID","type":"uint256","indexed":false,"internalType":"uint256"}],"anonymous":false},{"type":"event","name":"Deposited","inputs":[{"name":"sender","type":"address","indexed":true,"internalType":"address"},{"name":"receiver","type":"address","indexed":true,"internalType":"address"},{"name":"vaultBalance","type":"uint256","indexed":false,"internalType":"uint256"},{"name":"userAssetsAfterTotalFees","type":"uint256","indexed":false,"internalType":"uint256"},{"name":"sharesForReceiver","type":"uint256","indexed":false,"internalType":"uint256"},{"name":"entryFee","type":"uint256","indexed":false,"internalType":"uint256"},{"name":"vaultId","type":"uint256","indexed":false,"internalType":"uint256"}],"anonymous":false},{"type":"event","name":"FeesTransferred","inputs":[{"name":"sender","type":"address","indexed":true,"internalType":"address"},{"name":"protocolVault","type":"address","indexed":true,"internalType":"address"},{"name":"amount","type":"uint256","indexed":false,"internalType":"uint256"}],"anonymous":false},{"type":"event","name":"Initialized","inputs":[{"name":"version","type":"uint64","indexed":false,"internalType":"uint64"}],"anonymous":false},{"type":"event","name":"Paused","inputs":[{"name":"account","type":"address","indexed":false,"internalType":"address"}],"anonymous":false},{"type":"event","name":"Redeemed","inputs":[{"name":"sender","type":"address","indexed":true,"internalType":"address"},{"name":"receiver","type":"address","indexed":true,"internalType":"address"},{"name":"vaultBalance","type":"uint256","indexed":false,"internalType":"uint256"},{"name":"assetsForReceiver","type":"uint256","indexed":false,"internalType":"uint256"},{"name":"shares","type":"uint256","indexed":false,"internalType":"uint256"},{"name":"exitFee","type":"uint256","indexed":false,"internalType":"uint256"},{"name":"vaultId","type":"uint256","indexed":false,"internalType":"uint256"}],"anonymous":false},{"type":"event","name":"TripleCreated","inputs":[{"name":"creator","type":"address","indexed":true,"internalType":"address"},{"name":"subjectId","type":"uint256","indexed":false,"internalType":"uint256"},{"name":"predicateId","type":"uint256","indexed":false,"internalType":"uint256"},{"name":"objectId","type":"uint256","indexed":false,"internalType":"uint256"},{"name":"vaultID","type":"uint256","indexed":false,"internalType":"uint256"}],"anonymous":false},{"type":"event","name":"Unpaused","inputs":[{"name":"account","type":"address","indexed":false,"internalType":"address"}],"anonymous":false},{"type":"error","name":"EnforcedPause","inputs":[]},{"type":"error","name":"ExpectedPause","inputs":[]},{"type":"error","name":"InvalidInitialization","inputs":[]},{"type":"error","name":"MultiVault_AdminOnly","inputs":[]},{"type":"error","name":"MultiVault_ArraysNotSameLength","inputs":[]},{"type":"error","name":"MultiVault_AtomDoesNotExist","inputs":[{"name":"atomId","type":"uint256","internalType":"uint256"}]},{"type":"error","name":"MultiVault_AtomExists","inputs":[{"name":"atomUri","type":"bytes","internalType":"bytes"}]},{"type":"error","name":"MultiVault_AtomUriTooLong","inputs":[]},{"type":"error","name":"MultiVault_BurnFromZeroAddress","inputs":[]},{"type":"error","name":"MultiVault_BurnInsufficientBalance","inputs":[]},{"type":"error","name":"MultiVault_DeployAccountFailed","inputs":[]},{"type":"error","name":"MultiVault_DepositOrWithdrawZeroShares","inputs":[]},{"type":"error","name":"MultiVault_HasCounterStake","inputs":[]},{"type":"error","name":"MultiVault_InsufficientBalance","inputs":[]},{"type":"error","name":"MultiVault_InsufficientDepositAmountToCoverFees","inputs":[]},{"type":"error","name":"MultiVault_InsufficientRemainingSharesInVault","inputs":[{"name":"remainingShares","type":"uint256","internalType":"uint256"}]},{"type":"error","name":"MultiVault_InsufficientSharesInVault","inputs":[]},{"type":"error","name":"MultiVault_InvalidEntryFee","inputs":[]},{"type":"error","name":"MultiVault_InvalidExitFee","inputs":[]},{"type":"error","name":"MultiVault_InvalidProtocolFee","inputs":[]},{"type":"error","name":"MultiVault_MinimumDeposit","inputs":[]},{"type":"error","name":"MultiVault_OperationAlreadyExecuted","inputs":[]},{"type":"error","name":"MultiVault_OperationAlreadyScheduled","inputs":[]},{"type":"error","name":"MultiVault_OperationNotScheduled","inputs":[]},{"type":"error","name":"MultiVault_ReceiveNotAllowed","inputs":[]},{"type":"error","name":"MultiVault_TimelockNotExpired","inputs":[]},{"type":"error","name":"MultiVault_TransferFailed","inputs":[]},{"type":"error","name":"MultiVault_TripleExists","inputs":[{"name":"subjectId","type":"uint256","internalType":"uint256"},{"name":"predicateId","type":"uint256","internalType":"uint256"},{"name":"objectId","type":"uint256","internalType":"uint256"}]},{"type":"error","name":"MultiVault_VaultDoesNotExist","inputs":[]},{"type":"error","name":"MultiVault_VaultIsTriple","inputs":[{"name":"vaultId","type":"uint256","internalType":"uint256"}]},{"type":"error","name":"MultiVault_VaultNotAtom","inputs":[]},{"type":"error","name":"MultiVault_VaultNotTriple","inputs":[]},{"type":"error","name":"NotInitializing","inputs":[]},{"type":"error","name":"ReentrancyGuardReentrantCall","inputs":[]}],"bytecode":{"object":"0x6080604052348015600f57600080fd5b50614bae8061001f6000396000f3fe6080604052600436106103f25760003560e01c8063704b6c0211610208578063b790e67211610118578063db04a47c116100ab578063e3b764af1161007a578063e3b764af14610db9578063ee9dd98f14610de6578063f10c9f9b14610e06578063f315a94e14610e19578063f903ff7214610e4657610410565b8063db04a47c14610d1b578063db2088f414610d59578063dc5adb8c14610d79578063de3cca6014610d9957610410565b8063c61703ac116100e7578063c61703ac14610c36578063c9ceddb814610c66578063cfc15f1514610c95578063d34ddc0514610cb557610410565b8063b790e67214610bb6578063bb7dd37914610bd6578063bbec4d0614610bf6578063c26388e314610c1657610410565b80638c64ea4a1161019b578063927a97a11161016a578063927a97a114610ab15780639f49b60e14610b36578063a4ddc78614610b56578063ab23856514610b76578063ae0a154214610b9657610410565b80638c64ea4a14610a165780638daf744314610a4a5780638fcc9cfb14610a5d5780639085559214610a7d57610410565b80638456cb59116101d75780638456cb59146109b057806384e100db146109c5578063859aa971146109e357806389065256146109f657610410565b8063704b6c02146108ee5780637a7af70d1461090e5780637c3736611461092e5780637f833f041461098057610410565b80633800c5c4116103035780635408eec91161029657806361d2a6571161026557806361d2a6571461084e57806365f646851461086e57806366e34a331461088e57806367ab7594146108ae5780636cc18d40146108ce57610410565b80635408eec9146107b057806356d54d68146107d057806359b125d2146107f05780635c975abb1461081d57610410565b80633f4ba83a116102d25780633f4ba83a1461070e578063441d1c2f146107235780634abe4137146107365780634d592c6a1461077c57610410565b80633800c5c41461069b57806339a38449146106bb57806339c4f49c146106db57806339c5dec7146106ee57610410565b80631d35900a116103865780632a22fec5116103555780632a22fec5146106065780632dbc4982146106265780632dd426441461064657806333332d3914610666578063340a28121461067b57610410565b80631d35900a1461054b5780631e19e2c81461058b57806322061379146105aa578063240de277146105e657610410565b80630cde801b116103c25780630cde801b146104bb5780630d65c91c146104f657806313aaab971461050b578063181e7b3b1461052b57610410565b80621fc87d1461041a57806304c89bc61461043a57806306661abd1461046d5780630ac819db1461048357610410565b36610410576040516307a15ef160e51b815260040160405180910390fd5b610418610e66565b005b34801561042657600080fd5b50610418610435366004613b3d565b610efe565b34801561044657600080fd5b5061045a610455366004613b5a565b610f4b565b6040519081526020015b60405180910390f35b34801561047957600080fd5b5061045a60115481565b34801561048f57600080fd5b506104a361049e366004613b7c565b610fa6565b6040516001600160a01b039091168152602001610464565b3480156104c757600080fd5b506104db6104d6366004613b7c565b61101e565b60408051938452602084019290925290820152606001610464565b34801561050257600080fd5b5061045a6110d2565b34801561051757600080fd5b5061045a610526366004613b7c565b6110ff565b34801561053757600080fd5b5061045a610546366004613b5a565b61115a565b34801561055757600080fd5b5061056b610566366004613b5a565b61119c565b604080519485526020850193909352918301526060820152608001610464565b34801561059757600080fd5b50600a54600b54600c546104db92919083565b3480156105b657600080fd5b506104db6105c5366004613b7c565b60136020526000908152604090208054600182015460029092015490919083565b3480156105f257600080fd5b50610418610601366004613b5a565b61126e565b34801561061257600080fd5b50610418610621366004613b7c565b6112e4565b34801561063257600080fd5b50610418610641366004613b7c565b611314565b34801561065257600080fd5b50610418610661366004613b7c565b611344565b34801561067257600080fd5b5061045a611374565b34801561068757600080fd5b50610418610696366004613b7c565b61138e565b3480156106a757600080fd5b5061045a6106b6366004613b95565b6113be565b3480156106c757600080fd5b5061045a6106d6366004613b5a565b6114c9565b61045a6106e9366004613bcd565b61151c565b3480156106fa57600080fd5b50610418610709366004613b3d565b611587565b34801561071a57600080fd5b506104186115d4565b61045a610731366004613bf9565b611609565b34801561074257600080fd5b5061045a610751366004613bf9565b60009081526012602090815260408083206001600160a01b0394909416835260029093019052205490565b34801561078857600080fd5b5061045a7f778822020b59638b22ca9362f2de4db01600920f59fc336582386847a4f2ec0a81565b3480156107bc57600080fd5b506104186107cb366004613b5a565b6116e0565b3480156107dc57600080fd5b506104186107eb366004613c66565b611753565b3480156107fc57600080fd5b5061045a61080b366004613b7c565b60176020526000908152604090205481565b34801561082957600080fd5b50600080516020614b398339815191525460ff165b6040519015158152602001610464565b34801561085a57600080fd5b50610418610869366004613e21565b611883565b61088161087c366004613f40565b611b8a565b6040516104649190613f81565b34801561089a57600080fd5b5061083e6108a9366004613b7c565b611cdd565b3480156108ba57600080fd5b5061056b6108c9366004613b5a565b611d38565b3480156108da57600080fd5b506104186108e9366004613b7c565b611dc8565b3480156108fa57600080fd5b50610418610909366004613b3d565b611df8565b34801561091a57600080fd5b5061045a610929366004613b5a565b611efd565b34801561093a57600080fd5b5061045a610949366004613bcd565b6040805160208082019590955280820193909352606080840192909252805180840390920182526080909201909152805191012090565b34801561098c57600080fd5b5060085460095461099b919082565b60408051928352602083019190915201610464565b3480156109bc57600080fd5b50610418611f16565b3480156109d157600080fd5b50600f546001600160a01b03166104a3565b61045a6109f1366004613bf9565b611f49565b348015610a0257600080fd5b5061099b610a11366004613fb9565b612035565b348015610a2257600080fd5b5061099b610a31366004613b7c565b6012602052600090815260409020805460019091015482565b610881610a58366004613fe9565b61207a565b348015610a6957600080fd5b50610418610a78366004613b7c565b61222f565b348015610a8957600080fd5b5061045a7f7925972c66d280d08f7e7a6e3f3aae3eb40e786fe30284acf451c52bdc133abd81565b348015610abd57600080fd5b50600054600154600254600354600454600554600654600754610af0976001600160a01b03908116971695949392919088565b604080516001600160a01b03998a168152989097166020890152958701949094526060860192909252608085015260a084015260c083015260e082015261010001610464565b348015610b4257600080fd5b50610418610b51366004613b5a565b61225f565b348015610b6257600080fd5b5061045a610b71366004613b5a565b612390565b348015610b8257600080fd5b50610418610b91366004613b7c565b6123fb565b348015610ba257600080fd5b5061045a610bb1366004613b5a565b61242b565b348015610bc257600080fd5b5061045a610bd1366004613b95565b61247e565b348015610be257600080fd5b5061045a610bf1366004613b7c565b6124ae565b348015610c0257600080fd5b5061045a610c11366004613b5a565b6124bc565b348015610c2257600080fd5b5061045a610c31366004613b5a565b6124c9565b348015610c4257600080fd5b5061083e610c51366004613b7c565b60186020526000908152604090205460ff1681565b348015610c7257600080fd5b50610c86610c81366004613b7c565b6124f7565b604051610464939291906140d2565b348015610ca157600080fd5b5061045a610cb0366004613b5a565b6125a5565b348015610cc157600080fd5b50600d54600e54600f54601054610ce8936001600160a01b03908116938116928116911684565b604080516001600160a01b0395861681529385166020850152918416918301919091529091166060820152608001610464565b348015610d2757600080fd5b5061045a610d363660046140fc565b601960209081526000938452604080852082529284528284209052825290205481565b348015610d6557600080fd5b5061045a610d74366004613b5a565b6125ca565b348015610d8557600080fd5b506104a3610d94366004613b7c565b6125ff565b348015610da557600080fd5b50610418610db4366004613c66565b612681565b348015610dc557600080fd5b5061045a610dd4366004613b7c565b60156020526000908152604090205481565b348015610df257600080fd5b5061045a610e01366004613b7c565b61282c565b61045a610e14366004614135565b61287b565b348015610e2557600080fd5b50610e39610e34366004613b7c565b612900565b604051610464919061416a565b348015610e5257600080fd5b50610418610e61366004613b7c565b61299a565b36610e6f573636f35b6000805b80368210610e815750610edd565b600180830192600319810190351860001a9081610ecd57600019855260028301933560021984011860001a607f808211610ebc578282013888395b16949094019093019250610e739050565b8185538085019450505050610e73565b50600038826000305af490503d6000803e80610ef8573d6000fd5b503d6000f35b6000546001600160a01b03163314610f295760405163344c21f360e11b815260040160405180910390fd5b600f80546001600160a01b0319166001600160a01b0392909216919091179055565b60008181526013602052604081205481610f9b858315610f6b57836129ca565b6000805260136020527f8fa6efc3be94b5b348b21fea823fe8d100408cee9b7f90524494500445d8ff6c546129ca565b925050505b92915050565b60008181610fb26129dd565b8051602091820120604080516001600160f81b0319818501523060601b6bffffffffffffffffffffffff19166021820152603581019590955260558086019290925280518086039092018252607590940190935282519201919091206001600160a01b03169392505050565b60008080806110306002600019614193565b8511905060008161104e57600086815260166020526040902061106d565b6016600061105e886000196141b5565b81526020019081526020016000205b604080516060810191829052919060039082845b8154815260200190600101908083116110815750505050509050806000600381106110ae576110ae6141c8565b60200201518160016020020151826002602002015194509450945050509193909250565b60045460009081906110e59060026141de565b600b54600a546110f591906141f5565b610fa091906141f5565b6000611109613a62565b6111128361101e565b60408085018290526020808601849052848652815190810194909452830191909152606082015260800160405160208183030381529060405280519060200120915050919050565b6000818152601260205260408120600101548181156111935760008481526012602052604090205461118e90869084612abb565b610f9b565b50929392505050565b60008181526012602052604081206001015481908190819081906111c19088906141b5565b905060006111cf888861115a565b90506000806111ed600080516020614b398339815191525460ff1690565b156111fd57506000905080611242565b600454840361121a57506000611213838a6114c9565b9150611242565b611224838a6114c9565b9150600061123283856141b5565b905061123e818b61242b565b9150505b8260008361125084846141b5565b61125a91906141b5565b919c919b5092995090975095505050505050565b6000546001600160a01b031633146112995760405163344c21f360e11b815260040160405180910390fd5b6002546000906112ab90600a90614193565b9050808211156112ce5760405163323d10bb60e11b815260040160405180910390fd5b5060009182526013602052604090912060020155565b6000546001600160a01b0316331461130f5760405163344c21f360e11b815260040160405180910390fd5b600455565b6000546001600160a01b0316331461133f5760405163344c21f360e11b815260040160405180910390fd5b600b55565b6000546001600160a01b0316331461136f5760405163344c21f360e11b815260040160405180910390fd5b600855565b600454600854600954600092839290916110f591906141f5565b6000546001600160a01b031633146113b95760405163344c21f360e11b815260040160405180910390fd5b600555565b60006113c8612ae2565b8115806113d6575060115482115b156113f457604051631dd74dd360e21b815260040160405180910390fd5b6113fd82611cdd565b1561141b576040516330a1237960e11b815260040160405180910390fd5b60008061142a84338789612b1a565b915091506000856001600160a01b03168360405160006040518083038185875af1925050503d806000811461147b576040519150601f19603f3d011682016040523d82523d6000602084013e611480565b606091505b50509050806114a257604051636053f14b60e01b815260040160405180910390fd5b6114ab82612cf5565b50506001600080516020614b598339815191525590505b9392505050565b60008181526013602052604081206002015481610f9b8583156114ec57836129ca565b6000805260136020527f8fa6efc3be94b5b348b21fea823fe8d100408cee9b7f90524494500445d8ff6e546129ca565b6000611526612ae2565b61152e612dd0565b6115366110d2565b34101561155657604051637b0a37cf60e01b815260040160405180910390fd5b60008061156586868634612e01565b91509150600081600a6000015461157c91906141f5565b90506114ab81612cf5565b6000546001600160a01b031633146115b25760405163344c21f360e11b815260040160405180910390fd5b600180546001600160a01b0319166001600160a01b0392909216919091179055565b6000546001600160a01b031633146115ff5760405163344c21f360e11b815260040160405180910390fd5b611607613135565b565b6000611613612ae2565b61161b612dd0565b811580611629575060115482115b1561164757604051631dd74dd360e21b815260040160405180910390fd5b61165082611cdd565b1561166e576040516330a1237960e11b815260040160405180910390fd5b6003543410156116915760405163214d1c9760e11b815260040160405180910390fd5b600061169d34846114c9565b905060006116ab82346141b5565b905060006116ba868684613195565b90506116c583612cf5565b92505050610fa06001600080516020614b5983398151915255565b6000546001600160a01b0316331461170b5760405163344c21f360e11b815260040160405180910390fd5b60025460009061171d90600a90614193565b9050808211156117405760405163c346397360e01b815260040160405180910390fd5b5060009182526013602052604090912055565b6000546001600160a01b0316331461177e5760405163344c21f360e11b815260040160405180910390fd5b60075460405160009061179b908690869086908690602001614208565b60408051601f1981840301815291815281516020928301206000818152601a909352912060010154909150156117e4576040516323dd65e160e21b815260040160405180910390fd5b60006117f083426141f5565b6040805160806020601f89018190040282018101909252606081018781529293509182918890889081908501838280828437600092018290525093855250505060208083018590526040928301829052858252601a9052208151819061185690826142aa565b50602082015160018201556040909101516002909101805460ff1916911515919091179055505050505050565b7ff0c57e16840df040f15088dc2f81fe391c3923bec73e23a9662efc9c229c6a008054600160401b810460ff1615906001600160401b03166000811580156118c85750825b90506000826001600160401b031660011480156118e45750303b155b9050811580156118f2575080155b156119105760405163f92ee8a960e01b815260040160405180910390fd5b845467ffffffffffffffff19166001178555831561193a57845460ff60401b1916600160401b1785555b6119426132c8565b61194a6132d8565b896000808201518160000160006101000a8154816001600160a01b0302191690836001600160a01b0316021790555060208201518160010160006101000a8154816001600160a01b0302191690836001600160a01b0316021790555060408201518160020155606082015181600301556080820151816004015560a0820151816005015560c0820151816006015560e08201518160070155905050886008600082015181600001556020820151816001015590505087600a60008201518160000155602082015181600101556040820151816002015590505086600d60008201518160000160006101000a8154816001600160a01b0302191690836001600160a01b0316021790555060208201518160010160006101000a8154816001600160a01b0302191690836001600160a01b0316021790555060408201518160020160006101000a8154816001600160a01b0302191690836001600160a01b0316021790555060608201518160030160006101000a8154816001600160a01b0302191690836001600160a01b03160217905550905050604051806060016040528087600001518152602001876020015181526020018760400151815250601360008081526020019081526020016000206000820151816000015560208201518160010155604082015181600201559050508315611b7e57845460ff60401b19168555604051600181527fc7f505b2f371ae2175ee4913f4499e1f2633a7b5936321eed1cdaeb6115181d29060200160405180910390a15b50505050505050505050565b6060611b94612ae2565b611b9c612dd0565b8180611ba6611374565b611bb091906141de565b341015611bd057604051637b0a37cf60e01b815260040160405180910390fd5b6000611bdc8234614193565b9050600080836001600160401b03811115611bf957611bf9613cb1565b604051908082528060200260200182016040528015611c22578160200160208202803683370190505b50905060005b84811015611c96576000611c5f898984818110611c4757611c476141c8565b9050602002810190611c599190614369565b876132e8565b848481518110611c7157611c716141c8565b60209081029190910101919091529050611c8b81856141f5565b935050600101611c28565b5060008285600860010154611cab91906141de565b611cb591906141f5565b9050611cc081612cf5565b509350505050610fa06001600080516020614b5983398151915255565b600080611ced6002600019614193565b8311905080611d0d5760008381526018602052604090205460ff166114c2565b60186000611d1d856000196141b5565b815260208101919091526040016000205460ff169392505050565b6000806000806000611d4a87876124c9565b90506000611d5882896141b5565b90506000611d66838a6141b5565b60045460008a8152601260205260408120600101549293509103611d8c57506000611d99565b611d96838a610f4b565b90505b6000611da582856141b5565b90506000611db3828c6125ca565b939c939b509099509097509095505050505050565b6000546001600160a01b03163314611df35760405163344c21f360e11b815260040160405180910390fd5b600a55565b6000546001600160a01b03163314611e235760405163344c21f360e11b815260040160405180910390fd5b604080516001600160a01b0383166024808301919091528251808303909101815260449091018252602080820180516001600160e01b0316633825b60160e11b17905260075492519192600092611ea0927f778822020b59638b22ca9362f2de4db01600920f59fc336582386847a4f2ec0a9286929091016143af565b604051602081830303815290604052805190602001209050611ec181613460565b600080546001600160a01b0319166001600160a01b0394909416939093178355825250601a60205260409020600201805460ff19166001179055565b600080611f0a8484611d38565b50909695505050505050565b6000546001600160a01b03163314611f415760405163344c21f360e11b815260040160405180910390fd5b611607613599565b6000611f53612ae2565b611f5b612dd0565b611f6482611cdd565b611f8157604051632abf634360e01b815260040160405180910390fd5b611f8b82846135e2565b15611fa95760405163332c26cd60e01b815260040160405180910390fd5b600354341015611fcc5760405163214d1c9760e11b815260040160405180910390fd5b6000611fd834846114c9565b90506000611fe682346141b5565b90506000611ff5868684613195565b905061200083612cf5565b600061200c83876124c9565b9050612019868883613659565b5092505050610fa06001600080516020614b5983398151915255565b60008281526012602090815260408083206001600160a01b0385168452600201909152812054819081612068828761119c565b509395509093505050505b9250929050565b6060612084612ae2565b61208c612dd0565b858414158061209b5750858214155b156120b95760405163479ca36960e01b815260040160405180910390fd5b8560006120c46110d2565b90506120d082826141de565b3410156120f057604051637b0a37cf60e01b815260040160405180910390fd5b60006120fc8334614193565b9050600080846001600160401b0381111561211957612119613cb1565b604051908082528060200260200182016040528015612142578160200160208202803683370190505b50905060005b858110156121dd5760006121a68e8e84818110612167576121676141c8565b905060200201358d8d85818110612180576121806141c8565b905060200201358c8c86818110612199576121996141c8565b9050602002013588612e01565b8484815181106121b8576121b86141c8565b602090810291909101019190915290506121d281856141f5565b935050600101612148565b5060008286600a600001546121f291906141de565b6121fc91906141f5565b905061220781612cf5565b509450505050506122256001600080516020614b5983398151915255565b9695505050505050565b6000546001600160a01b0316331461225a5760405163344c21f360e11b815260040160405180910390fd5b600355565b6000546001600160a01b0316331461228a5760405163344c21f360e11b815260040160405180910390fd5b60025460009061229c90600a90614193565b9050808211156122bf57604051635cbe946f60e01b815260040160405180910390fd5b604080516024810185905260448082018590528251808303909101815260649091018252602080820180516001600160e01b0316634fa4db0760e11b17905260075492519192600092612338927f7925972c66d280d08f7e7a6e3f3aae3eb40e786fe30284acf451c52bdc133abd9286929091016143af565b60405160208183030381529060405280519060200120905061235981613460565b6000948552601360209081526040808720600190810196909655918652601a9052909320600201805460ff19169092179091555050565b60008061239d84846114c9565b905060006123ab82866141b5565b905060006123b982866124c9565b905060006123c782846141b5565b905060006123d58288610f4b565b90506000816123e485886141f5565b6123ee91906141f5565b9998505050505050505050565b6000546001600160a01b031633146124265760405163344c21f360e11b815260040160405180910390fd5b600c55565b60008181526013602052604081206001015481610f9b85831561244e57836129ca565b6000805260136020527f8fa6efc3be94b5b348b21fea823fe8d100408cee9b7f90524494500445d8ff6d546129ca565b6000612488612ae2565b61249182611cdd565b61141b57604051632abf634360e01b815260040160405180910390fd5b6000610fa0826000196141b5565b600080611f0a848461119c565b6000806124d583611cdd565b6124e05760006124ef565b6124ef84600a600201546129ca565b949350505050565b601a6020526000908152604090208054819061251290614223565b80601f016020809104026020016040519081016040528092919081815260200182805461253e90614223565b801561258b5780601f106125605761010080835404028352916020019161258b565b820191906000526020600020905b81548152906001019060200180831161256e57829003601f168201915b50505050600183015460029093015491929160ff16905083565b601660205281600052604060002081600381106125c157600080fd5b01549150829050565b6000818152601260205260408120600101548181156111935760008481526012602052604090205461118e9086908490612abb565b6000612609612dd0565b811580612617575060115482115b1561263557604051631dd74dd360e21b815260040160405180910390fd5b8160006126406129dd565b90506000828251602084016000f590506001600160a01b038116612677576040516349054c2f60e01b815260040160405180910390fd5b925050505b919050565b6000546001600160a01b031633146126ac5760405163344c21f360e11b815260040160405180910390fd5b6007546040516000916126c89186918691869190602001614208565b6040516020818303038152906040528051906020012090506000601a600083815260200190815260200160002060405180606001604052908160008201805461271090614223565b80601f016020809104026020016040519081016040528092919081815260200182805461273c90614223565b80156127895780601f1061275e57610100808354040283529160200191612789565b820191906000526020600020905b81548152906001019060200180831161276c57829003601f168201915b5050509183525050600182015460208083019190915260029092015460ff1615156040909101528101519091506000036127d657604051630268c8ed60e51b815260040160405180910390fd5b8060400151156127f957604051631647946960e11b815260040160405180910390fd5b6000828152601a60205260408120906128128282613a80565b5060006001820155600201805460ff191690555050505050565b600081815260126020526040812060010154818115612871576006546000858152601260205260409020548391612862916141de565b61286c9190614193565b6124ef565b6000949350505050565b6000612885612ae2565b61288d612dd0565b612895611374565b3410156128b557604051637b0a37cf60e01b815260040160405180910390fd5b6000806128c38585346132e8565b915091506000816008600101546128da91906141f5565b90506128e581612cf5565b50506001600080516020614b59833981519152559050610fa0565b6014602052600090815260409020805461291990614223565b80601f016020809104026020016040519081016040528092919081815260200182805461294590614223565b80156129925780601f1061296757610100808354040283529160200191612992565b820191906000526020600020905b81548152906001019060200180831161297557829003601f168201915b505050505081565b6000546001600160a01b031633146129c55760405163344c21f360e11b815260040160405180910390fd5b600955565b6002546000906114c29084908490613735565b6010546040516060916001600160a01b0316906000906129ff60208201613abd565b818103601f199081018352601f909101166040818152600e54600f546001600160a01b039182166024850152166044830152306064808401919091528151808403909101815260849092018152602080830180516001600160e01b031663184b955960e01b17905290519293509091600091612a7f9186918591016143dc565b60405160208183030381529060405290508281604051602001612aa3929190614400565b60405160208183030381529060405294505050505090565b6000826000190484118302158202612adb5763ad251c276000526004601cfd5b5091020490565b600080516020614b59833981519152805460011901612b1457604051633ee5aeb560e01b815260040160405180910390fd5b60029055565b60008082600003612b3e5760405163360495bf60e11b815260040160405180910390fd5b60008681526012602090815260408083206001600160a01b0389168452600201909152902054831115612b845760405163e5e7340760e01b815260040160405180910390fd5b600454600087815260126020526040902060010154612ba49085906141b5565b1015612bec57600086815260126020526040902060010154612bc79084906141b5565b60405163f89b912f60e01b8152600401612be391815260200190565b60405180910390fd5b6000806000612bfb868a61119c565b93509350935050612c60898385612c1291906141f5565b60008c815260126020526040902054612c2b91906141b5565b60008c815260126020526040902060010154612c48908a906141b5565b60009283526012602052604090922090815560010155565b612c6b888a88613764565b60008981526012602090815260408083206001600160a01b038c8116808652600290920184529382902054825190815292830187905290820189905260608201849052608082018c905291891691907f347ee37487f7d4fe0b4d3777823c6a71c110e3df43f4f3d35356cf6909e9abdb9060a00160405180910390a3509097909650945050505050565b80600003612d005750565b6001546040516000916001600160a01b03169083908381818185875af1925050503d8060008114612d4d576040519150601f19603f3d011682016040523d82523d6000602084013e612d52565b606091505b5050905080612d7457604051636053f14b60e01b815260040160405180910390fd5b6001546040518381526001600160a01b039091169033907ffd2f5d3811ae7b8af2bd567683c6265c793894aa361eb932658effcf52d635a29060200160405180910390a35050565b6001600080516020614b5983398151915255565b600080516020614b398339815191525460ff16156116075760405163d93c066560e01b815260040160405180910390fd5b6000806000604051806060016040528088815260200187815260200186815250905060005b6003811015612f0057818160038110612e4157612e416141c8565b60200201511580612e695750601154828260038110612e6257612e626141c8565b6020020151115b15612ea157818160038110612e8057612e806141c8565b6020020151604051630c69720360e01b8152600401612be391815260200190565b612ec0828260038110612eb657612eb66141c8565b6020020151611cdd565b15612ef857818160038110612ed757612ed76141c8565b602002015160405163104c97c760e21b8152600401612be391815260200190565b600101612e26565b506040805160208082018a905281830189905260608083018990528351808403909101815260809092018352815191810191909120600081815260179092529190205415612f7257604051632cdeb83960e21b8152600481018990526024810188905260448101879052606401612be3565b6000612f7c6110d2565b612f8690876141b5565b90506000612f92613801565b90506000612fa083836114c9565b90506000612fae82856141b5565b905082601760008781526020019081526020016000208190555060405180606001604052808d81526020018c81526020018b81525060166000858152602001908152602001600020906003613004929190613aca565b506000838152601860205260408120805460ff1916600117905561302882856124c9565b905061303e843361303984866141b5565b61381e565b801561304f5761304f843383613659565b600b54156130d95760005b60038110156130d7576000888260038110613077576130776141c8565b602002015190506130ce816003600a600101546130949190614193565b6000848152601260205260409020546130ad91906141f5565b60008481526012602052604080822060019081015494835291209182550155565b5060010161305a565b505b604080518e8152602081018e90529081018c90526060810185905233907f950bffece137ec4b4173970288bc78f45d30d77c58e0e87e6b210599a9ddc8f39060800160405180910390a250919b909a5098505050505050505050565b61313d613981565b600080516020614b39833981519152805460ff191681557f5db9ee0a495bf2e6ff9c91a7834c1ba4fdd244a5e8aa4e537bd38aeae4b073aa335b6040516001600160a01b03909116815260200160405180910390a150565b60006131a18284611efd565b6000036131c15760405163360495bf60e11b815260040160405180910390fd5b6000806000806131d18688611d38565b9350935093509350600084116131fa57604051633da77bd160e21b815260040160405180910390fd5b600087815260126020526040902054839061323990899061321c9088906141f5565b60008b815260126020526040902060010154612c489085906141f5565b6132448989866139b1565b60008881526012602090815260408083206001600160a01b038d168085526002909101835292819020548151908152918201869052810186905260608101849052608081018a905233907f354721bce0f1b29ebf3646e2e2c6d15259383d9493f4bb62300f579d2ad576929060a00160405180910390a35091979650505050505050565b6132d06139f0565b611607613a39565b6132e06139f0565b611607613a41565b600554600090819084111561331057604051636455344360e01b815260040160405180910390fd5b600061331a611374565b90506000868660405161332e92919061442f565b604051809103902090506015600082815260200190815260200160002054600014613370578686604051632d215baf60e21b8152600401612be3929190614468565b600061337c83876141b5565b90506000613388613801565b9050600061339683836114c9565b905060006133a482856141b5565b90506133b183338361381e565b60006133bc84610fa6565b90506133ce848260086000015461381e565b60008481526014602052604090206133e78c8e8361447c565b50836015600088815260200190815260200160002081905550806001600160a01b0316336001600160a01b03167f8a016c336f3624ae541c0b00d83a02b05ed2ecbb29874e15881766f51aa323e08e8e886040516134479392919061453c565b60405180910390a350919a909950975050505050505050565b6000818152601a602052604080822081516060810190925280548290829061348790614223565b80601f01602080910402602001604051908101604052809291908181526020018280546134b390614223565b80156135005780601f106134d557610100808354040283529160200191613500565b820191906000526020600020905b8154815290600101906020018083116134e357829003601f168201915b5050509183525050600182015460208083019190915260029092015460ff16151560409091015281015190915060000361354d57604051630268c8ed60e51b815260040160405180910390fd5b80604001511561357057604051631647946960e11b815260040160405180910390fd5b428160200151111561359557604051635423118360e01b815260040160405180910390fd5b5050565b6135a1612dd0565b600080516020614b39833981519152805460ff191660011781557f62e78cea01bee320cd4e420270b5ea74000d11b0c9f74754ebdbfc544b05a25833613177565b60006135ed83611cdd565b61360a57604051632abf634360e01b815260040160405180910390fd5b600060128161361b866000196141b5565b81526020019081526020016000206002016000846001600160a01b03166001600160a01b031681526020019081526020016000205411905092915050565b613661613a62565b61366a8461101e565b6040840152602083015281526000613683600384614193565b905060005b600381101561372d5760006136b4868584600381106136a9576136a96141c8565b602002015185613195565b60008881526019602052604081209192508291908685600381106136da576136da6141c8565b602002015181526020019081526020016000206000886001600160a01b03166001600160a01b03168152602001908152602001600020600082825461371f91906141f5565b909155505050600101613688565b505050505050565b60008260001904841183021582026137555763ad251c276000526004601cfd5b50910281810615159190040190565b6001600160a01b03831661378b57604051639d3907e360e01b815260040160405180910390fd5b60008281526012602090815260408083206001600160a01b0387168452600201909152902054818110156137d257604051634e9cc70f60e11b815260040160405180910390fd5b60009283526012602090815260408085206001600160a01b039096168552600290950190529290912091039055565b60008060116000815461381390614560565b918290555092915050565b600061382984610fa6565b6004546001600160a01b03858116921691909114915080836000846138575761385284836141f5565b613859565b815b60008981526012602052604090205490915061387c90899061321c9084906141f5565b6138878789846139b1565b8461389857613898600089866139b1565b6138a188611cdd565b156138ff5760006138b1896124ae565b6000818152601260205260409020549091506138f19082906138d49087906141f5565b600084815260126020526040902060010154612c489089906141f5565b6138fd600082876139b1565b505b60008881526012602090815260408083206001600160a01b038b16808552600290910183528184205482519081529283018a90529082018490526060820192909252608081018a905233907f354721bce0f1b29ebf3646e2e2c6d15259383d9493f4bb62300f579d2ad576929060a00160405180910390a35050505050505050565b600080516020614b398339815191525460ff1661160757604051638dfc202b60e01b815260040160405180910390fd5b60008281526012602090815260408083206001600160a01b0387168452600201909152812080548392906139e69084906141f5565b9091555050505050565b7ff0c57e16840df040f15088dc2f81fe391c3923bec73e23a9662efc9c229c6a0054600160401b900460ff1661160757604051631afcd79f60e31b815260040160405180910390fd5b612dbc6139f0565b613a496139f0565b600080516020614b39833981519152805460ff19169055565b60405180606001604052806003906020820280368337509192915050565b508054613a8c90614223565b6000825580601f10613a9c575050565b601f016020900490600052602060002090810190613aba9190613b08565b50565b6105bf8061457a83390190565b8260038101928215613af8579160200282015b82811115613af8578251825591602001919060010190613add565b50613b04929150613b08565b5090565b5b80821115613b045760008155600101613b09565b6001600160a01b0381168114613aba57600080fd5b803561267c81613b1d565b600060208284031215613b4f57600080fd5b81356114c281613b1d565b60008060408385031215613b6d57600080fd5b50508035926020909101359150565b600060208284031215613b8e57600080fd5b5035919050565b600080600060608486031215613baa57600080fd5b833592506020840135613bbc81613b1d565b929592945050506040919091013590565b600080600060608486031215613be257600080fd5b505081359360208301359350604090920135919050565b60008060408385031215613c0c57600080fd5b8235613c1781613b1d565b946020939093013593505050565b60008083601f840112613c3757600080fd5b5081356001600160401b03811115613c4e57600080fd5b60208301915083602082850101111561207357600080fd5b600080600060408486031215613c7b57600080fd5b8335925060208401356001600160401b03811115613c9857600080fd5b613ca486828701613c25565b9497909650939450505050565b634e487b7160e01b600052604160045260246000fd5b60405161010081016001600160401b0381118282101715613cea57613cea613cb1565b60405290565b600060408284031215613d0257600080fd5b604051604081018181106001600160401b0382111715613d2457613d24613cb1565b604052823581526020928301359281019290925250919050565b600060608284031215613d5057600080fd5b604051606081018181106001600160401b0382111715613d7257613d72613cb1565b80604052508091508235815260208301356020820152604083013560408201525092915050565b600060808284031215613dab57600080fd5b604051608081018181106001600160401b0382111715613dcd57613dcd613cb1565b6040529050808235613dde81613b1d565b81526020830135613dee81613b1d565b60208201526040830135613e0181613b1d565b60408201526060830135613e1481613b1d565b6060919091015292915050565b6000806000806000858703610280811215613e3b57600080fd5b61010080821215613e4b57600080fd5b613e53613cc7565b91508735613e6081613b1d565b8252613e6e60208901613b32565b602083015260408801356040830152606088013560608301526080880135608083015260a088013560a083015260c088013560c083015260e088013560e0830152819650613ebe89828a01613cf0565b95505050613ed0876101408801613d3e565b9250613ee0876101a08801613d99565b9150613ef0876102208801613d3e565b90509295509295909350565b60008083601f840112613f0e57600080fd5b5081356001600160401b03811115613f2557600080fd5b6020830191508360208260051b850101111561207357600080fd5b60008060208385031215613f5357600080fd5b82356001600160401b03811115613f6957600080fd5b613f7585828601613efc565b90969095509350505050565b6020808252825182820181905260009190848201906040850190845b81811015611f0a57835183529284019291840191600101613f9d565b60008060408385031215613fcc57600080fd5b823591506020830135613fde81613b1d565b809150509250929050565b6000806000806000806060878903121561400257600080fd5b86356001600160401b038082111561401957600080fd5b6140258a838b01613efc565b9098509650602089013591508082111561403e57600080fd5b61404a8a838b01613efc565b9096509450604089013591508082111561406357600080fd5b5061407089828a01613efc565b979a9699509497509295939492505050565b60005b8381101561409d578181015183820152602001614085565b50506000910152565b600081518084526140be816020860160208601614082565b601f01601f19169290920160200192915050565b6060815260006140e560608301866140a6565b602083019490945250901515604090910152919050565b60008060006060848603121561411157600080fd5b8335925060208401359150604084013561412a81613b1d565b809150509250925092565b6000806020838503121561414857600080fd5b82356001600160401b0381111561415e57600080fd5b613f7585828601613c25565b6020815260006114c260208301846140a6565b634e487b7160e01b600052601160045260246000fd5b6000826141b057634e487b7160e01b600052601260045260246000fd5b500490565b81810381811115610fa057610fa061417d565b634e487b7160e01b600052603260045260246000fd5b8082028115828204841417610fa057610fa061417d565b80820180821115610fa057610fa061417d565b84815282846020830137602092019182015260400192915050565b600181811c9082168061423757607f821691505b60208210810361425757634e487b7160e01b600052602260045260246000fd5b50919050565b601f8211156142a5576000816000526020600020601f850160051c810160208610156142865750805b601f850160051c820191505b8181101561372d57828155600101614292565b505050565b81516001600160401b038111156142c3576142c3613cb1565b6142d7816142d18454614223565b8461425d565b602080601f83116001811461430c57600084156142f45750858301515b600019600386901b1c1916600185901b17855561372d565b600085815260208120601f198616915b8281101561433b5788860151825594840194600190910190840161431c565b50858210156143595787850151600019600388901b60f8161c191681555b5050505050600190811b01905550565b6000808335601e1984360301811261438057600080fd5b8301803591506001600160401b0382111561439a57600080fd5b60200191503681900382131561207357600080fd5b838152600083516143c7816020850160208801614082565b60209201918201929092526040019392505050565b6001600160a01b03831681526040602082018190526000906124ef908301846140a6565b60008351614412818460208801614082565b835190830190614426818360208801614082565b01949350505050565b8183823760009101908152919050565b81835281816020850137506000828201602090810191909152601f909101601f19169091010190565b6020815260006124ef60208301848661443f565b6001600160401b0383111561449357614493613cb1565b6144a7836144a18354614223565b8361425d565b6000601f8411600181146144db57600085156144c35750838201355b600019600387901b1c1916600186901b178355614535565b600083815260209020601f19861690835b8281101561450c57868501358255602094850194600190920191016144ec565b50868210156145295760001960f88860031b161c19848701351681555b505060018560011b0183555b5050505050565b60408152600061455060408301858761443f565b9050826020830152949350505050565b6000600182016145725761457261417d565b506001019056fe60a06040526040516105bf3803806105bf83398101604081905261002291610387565b61002c828261003e565b506001600160a01b031660805261047e565b610047826100fe565b6040516001600160a01b038316907f1cf3b03a6cf19fa2baba4df148e9dcabedea7f8a5c07840e207e5c089be95d3e90600090a28051156100f2576100ed826001600160a01b0316635c60da1b6040518163ffffffff1660e01b8152600401602060405180830381865afa1580156100c3573d6000803e3d6000fd5b505050506040513d601f19601f820116820180604052508101906100e79190610447565b82610211565b505050565b6100fa610288565b5050565b806001600160a01b03163b60000361013957604051631933b43b60e21b81526001600160a01b03821660048201526024015b60405180910390fd5b807fa3f0ad74e5423aebfd80d3ef4346578335a9a72aeaee59ff6cb3582b35133d5080546001600160a01b0319166001600160a01b0392831617905560408051635c60da1b60e01b81529051600092841691635c60da1b9160048083019260209291908290030181865afa1580156101b5573d6000803e3d6000fd5b505050506040513d601f19601f820116820180604052508101906101d99190610447565b9050806001600160a01b03163b6000036100fa57604051634c9c8ce360e01b81526001600160a01b0382166004820152602401610130565b6060600080846001600160a01b03168460405161022e9190610462565b600060405180830381855af49150503d8060008114610269576040519150601f19603f3d011682016040523d82523d6000602084013e61026e565b606091505b50909250905061027f8583836102a9565b95945050505050565b34156102a75760405163b398979f60e01b815260040160405180910390fd5b565b6060826102be576102b982610308565b610301565b81511580156102d557506001600160a01b0384163b155b156102fe57604051639996b31560e01b81526001600160a01b0385166004820152602401610130565b50805b9392505050565b8051156103185780518082602001fd5b604051630a12f52160e11b815260040160405180910390fd5b80516001600160a01b038116811461034857600080fd5b919050565b634e487b7160e01b600052604160045260246000fd5b60005b8381101561037e578181015183820152602001610366565b50506000910152565b6000806040838503121561039a57600080fd5b6103a383610331565b60208401519092506001600160401b03808211156103c057600080fd5b818501915085601f8301126103d457600080fd5b8151818111156103e6576103e661034d565b604051601f8201601f19908116603f0116810190838211818310171561040e5761040e61034d565b8160405282815288602084870101111561042757600080fd5b610438836020830160208801610363565b80955050505050509250929050565b60006020828403121561045957600080fd5b61030182610331565b60008251610474818460208701610363565b9190910192915050565b6080516101276104986000396000601e01526101276000f3fe6080604052600a600c565b005b60186014601a565b60a0565b565b60007f00000000000000000000000000000000000000000000000000000000000000006001600160a01b0316635c60da1b6040518163ffffffff1660e01b8152600401602060405180830381865afa1580156079573d6000803e3d6000fd5b505050506040513d601f19601f82011682018060405250810190609b919060c3565b905090565b3660008037600080366000845af43d6000803e80801560be573d6000f35b3d6000fd5b60006020828403121560d457600080fd5b81516001600160a01b038116811460ea57600080fd5b939250505056fea2646970667358221220d6e6c1436b2188572e3814403602323a5b4cb008e579e08617a8de233a0dd34d64736f6c63430008190033cd5ed15c6e187e77e9aee88184c21f4f2182ab5827cb3b7e07fbedcd63f033009b779b17422d0df92223018b32b4d1fa46e071723d6817e2486d003becc55f00a2646970667358221220e62239bf6d7412639db0353fd21920f220e00d76c9537c3fefe8ded5113cf61764736f6c63430008190033","linkReferences":{}},"methodIdentifiers":{"SET_ADMIN()":"4d592c6a","SET_EXIT_FEE()":"90855592","atomConfig()":"7f833f04","atomDepositFractionAmount(uint256,uint256)":"c26388e3","atoms(uint256)":"f315a94e","atomsByHash(bytes32)":"e3b764af","batchCreateAtom(bytes[])":"65f64685","batchCreateTriple(uint256[],uint256[],uint256[])":"8daf7443","cancelOperation(bytes32,bytes)":"de3cca60","computeAtomWalletAddr(uint256)":"0ac819db","convertToAssets(uint256,uint256)":"181e7b3b","convertToShares(uint256,uint256)":"db2088f4","count()":"06661abd","createAtom(bytes)":"f10c9f9b","createTriple(uint256,uint256,uint256)":"39c4f49c","currentSharePrice(uint256)":"ee9dd98f","deployAtomWallet(uint256)":"dc5adb8c","depositAtom(address,uint256)":"441d1c2f","depositTriple(address,uint256)":"859aa971","entryFeeAmount(uint256,uint256)":"04c89bc6","exitFeeAmount(uint256,uint256)":"ae0a1542","generalConfig()":"927a97a1","getAtomCost()":"33332d39","getAtomWarden()":"84e100db","getCounterIdFromTriple(uint256)":"bb7dd379","getDepositFees(uint256,uint256)":"a4ddc786","getDepositSharesAndFees(uint256,uint256)":"67ab7594","getRedeemAssetsAndFees(uint256,uint256)":"1d35900a","getTripleAtoms(uint256)":"0cde801b","getTripleCost()":"0d65c91c","getVaultStateForUser(uint256,address)":"89065256","init((address,address,uint256,uint256,uint256,uint256,uint256,uint256),(uint256,uint256),(uint256,uint256,uint256),(address,address,address,address),(uint256,uint256,uint256))":"61d2a657","isTriple(uint256)":"c61703ac","isTripleId(uint256)":"66e34a33","maxRedeem(address,uint256)":"4abe4137","pause()":"8456cb59","paused()":"5c975abb","previewDeposit(uint256,uint256)":"7a7af70d","previewRedeem(uint256,uint256)":"bbec4d06","protocolFeeAmount(uint256,uint256)":"39a38449","redeemAtom(uint256,address,uint256)":"3800c5c4","redeemTriple(uint256,address,uint256)":"b790e672","scheduleOperation(bytes32,bytes)":"56d54d68","setAdmin(address)":"704b6c02","setAtomCreationProtocolFee(uint256)":"f903ff72","setAtomDepositFractionForTriple(uint256)":"ab238565","setAtomDepositFractionOnTripleCreation(uint256)":"2dbc4982","setAtomUriMaxLength(uint256)":"340a2812","setAtomWalletInitialDepositAmount(uint256)":"2dd42644","setAtomWarden(address)":"001fc87d","setEntryFee(uint256,uint256)":"5408eec9","setExitFee(uint256,uint256)":"9f49b60e","setMinDeposit(uint256)":"8fcc9cfb","setMinShare(uint256)":"2a22fec5","setProtocolFee(uint256,uint256)":"240de277","setProtocolVault(address)":"39c5dec7","setTripleCreationProtocolFee(uint256)":"6cc18d40","timelocks(bytes32)":"c9ceddb8","tripleAtomShares(uint256,uint256,address)":"db04a47c","tripleConfig()":"1e19e2c8","tripleHash(uint256)":"13aaab97","tripleHashFromAtoms(uint256,uint256,uint256)":"7c373661","triples(uint256,uint256)":"cfc15f15","triplesByHash(bytes32)":"59b125d2","unpause()":"3f4ba83a","vaultFees(uint256)":"22061379","vaults(uint256)":"8c64ea4a","walletConfig()":"d34ddc05"},"storageLayout":{"storage":[{"astId":62106,"contract":"src/EthMultiVault.sol:EthMultiVault","label":"generalConfig","offset":0,"slot":"0","type":"t_struct(GeneralConfig)65394_storage"},{"astId":62109,"contract":"src/EthMultiVault.sol:EthMultiVault","label":"atomConfig","offset":0,"slot":"8","type":"t_struct(AtomConfig)65402_storage"},{"astId":62112,"contract":"src/EthMultiVault.sol:EthMultiVault","label":"tripleConfig","offset":0,"slot":"10","type":"t_struct(TripleConfig)65413_storage"},{"astId":62115,"contract":"src/EthMultiVault.sol:EthMultiVault","label":"walletConfig","offset":0,"slot":"13","type":"t_struct(WalletConfig)65428_storage"},{"astId":62118,"contract":"src/EthMultiVault.sol:EthMultiVault","label":"count","offset":0,"slot":"17","type":"t_uint256"},{"astId":62124,"contract":"src/EthMultiVault.sol:EthMultiVault","label":"vaults","offset":0,"slot":"18","type":"t_mapping(t_uint256,t_struct(VaultState)65438_storage)"},{"astId":62130,"contract":"src/EthMultiVault.sol:EthMultiVault","label":"vaultFees","offset":0,"slot":"19","type":"t_mapping(t_uint256,t_struct(VaultFees)65449_storage)"},{"astId":62135,"contract":"src/EthMultiVault.sol:EthMultiVault","label":"atoms","offset":0,"slot":"20","type":"t_mapping(t_uint256,t_bytes_storage)"},{"astId":62139,"contract":"src/EthMultiVault.sol:EthMultiVault","label":"atomsByHash","offset":0,"slot":"21","type":"t_mapping(t_bytes32,t_uint256)"},{"astId":62145,"contract":"src/EthMultiVault.sol:EthMultiVault","label":"triples","offset":0,"slot":"22","type":"t_mapping(t_uint256,t_array(t_uint256)3_storage)"},{"astId":62149,"contract":"src/EthMultiVault.sol:EthMultiVault","label":"triplesByHash","offset":0,"slot":"23","type":"t_mapping(t_bytes32,t_uint256)"},{"astId":62153,"contract":"src/EthMultiVault.sol:EthMultiVault","label":"isTriple","offset":0,"slot":"24","type":"t_mapping(t_uint256,t_bool)"},{"astId":62162,"contract":"src/EthMultiVault.sol:EthMultiVault","label":"tripleAtomShares","offset":0,"slot":"25","type":"t_mapping(t_uint256,t_mapping(t_uint256,t_mapping(t_address,t_uint256)))"},{"astId":62168,"contract":"src/EthMultiVault.sol:EthMultiVault","label":"timelocks","offset":0,"slot":"26","type":"t_mapping(t_bytes32,t_struct(Timelock)65460_storage)"}],"types":{"t_address":{"encoding":"inplace","label":"address","numberOfBytes":"20"},"t_array(t_uint256)3_storage":{"encoding":"inplace","label":"uint256[3]","numberOfBytes":"96","base":"t_uint256"},"t_bool":{"encoding":"inplace","label":"bool","numberOfBytes":"1"},"t_bytes32":{"encoding":"inplace","label":"bytes32","numberOfBytes":"32"},"t_bytes_storage":{"encoding":"bytes","label":"bytes","numberOfBytes":"32"},"t_contract(IPermit2)66033":{"encoding":"inplace","label":"contract IPermit2","numberOfBytes":"20"},"t_mapping(t_address,t_uint256)":{"encoding":"mapping","key":"t_address","label":"mapping(address => uint256)","numberOfBytes":"32","value":"t_uint256"},"t_mapping(t_bytes32,t_struct(Timelock)65460_storage)":{"encoding":"mapping","key":"t_bytes32","label":"mapping(bytes32 => struct IEthMultiVault.Timelock)","numberOfBytes":"32","value":"t_struct(Timelock)65460_storage"},"t_mapping(t_bytes32,t_uint256)":{"encoding":"mapping","key":"t_bytes32","label":"mapping(bytes32 => uint256)","numberOfBytes":"32","value":"t_uint256"},"t_mapping(t_uint256,t_array(t_uint256)3_storage)":{"encoding":"mapping","key":"t_uint256","label":"mapping(uint256 => uint256[3])","numberOfBytes":"32","value":"t_array(t_uint256)3_storage"},"t_mapping(t_uint256,t_bool)":{"encoding":"mapping","key":"t_uint256","label":"mapping(uint256 => bool)","numberOfBytes":"32","value":"t_bool"},"t_mapping(t_uint256,t_bytes_storage)":{"encoding":"mapping","key":"t_uint256","label":"mapping(uint256 => bytes)","numberOfBytes":"32","value":"t_bytes_storage"},"t_mapping(t_uint256,t_mapping(t_address,t_uint256))":{"encoding":"mapping","key":"t_uint256","label":"mapping(uint256 => mapping(address => uint256))","numberOfBytes":"32","value":"t_mapping(t_address,t_uint256)"},"t_mapping(t_uint256,t_mapping(t_uint256,t_mapping(t_address,t_uint256)))":{"encoding":"mapping","key":"t_uint256","label":"mapping(uint256 => mapping(uint256 => mapping(address => uint256)))","numberOfBytes":"32","value":"t_mapping(t_uint256,t_mapping(t_address,t_uint256))"},"t_mapping(t_uint256,t_struct(VaultFees)65449_storage)":{"encoding":"mapping","key":"t_uint256","label":"mapping(uint256 => struct IEthMultiVault.VaultFees)","numberOfBytes":"32","value":"t_struct(VaultFees)65449_storage"},"t_mapping(t_uint256,t_struct(VaultState)65438_storage)":{"encoding":"mapping","key":"t_uint256","label":"mapping(uint256 => struct IEthMultiVault.VaultState)","numberOfBytes":"32","value":"t_struct(VaultState)65438_storage"},"t_struct(AtomConfig)65402_storage":{"encoding":"inplace","label":"struct IEthMultiVault.AtomConfig","numberOfBytes":"64","members":[{"astId":65398,"contract":"src/EthMultiVault.sol:EthMultiVault","label":"atomWalletInitialDepositAmount","offset":0,"slot":"0","type":"t_uint256"},{"astId":65401,"contract":"src/EthMultiVault.sol:EthMultiVault","label":"atomCreationProtocolFee","offset":0,"slot":"1","type":"t_uint256"}]},"t_struct(GeneralConfig)65394_storage":{"encoding":"inplace","label":"struct IEthMultiVault.GeneralConfig","numberOfBytes":"256","members":[{"astId":65372,"contract":"src/EthMultiVault.sol:EthMultiVault","label":"admin","offset":0,"slot":"0","type":"t_address"},{"astId":65375,"contract":"src/EthMultiVault.sol:EthMultiVault","label":"protocolVault","offset":0,"slot":"1","type":"t_address"},{"astId":65378,"contract":"src/EthMultiVault.sol:EthMultiVault","label":"feeDenominator","offset":0,"slot":"2","type":"t_uint256"},{"astId":65381,"contract":"src/EthMultiVault.sol:EthMultiVault","label":"minDeposit","offset":0,"slot":"3","type":"t_uint256"},{"astId":65384,"contract":"src/EthMultiVault.sol:EthMultiVault","label":"minShare","offset":0,"slot":"4","type":"t_uint256"},{"astId":65387,"contract":"src/EthMultiVault.sol:EthMultiVault","label":"atomUriMaxLength","offset":0,"slot":"5","type":"t_uint256"},{"astId":65390,"contract":"src/EthMultiVault.sol:EthMultiVault","label":"decimalPrecision","offset":0,"slot":"6","type":"t_uint256"},{"astId":65393,"contract":"src/EthMultiVault.sol:EthMultiVault","label":"minDelay","offset":0,"slot":"7","type":"t_uint256"}]},"t_struct(Timelock)65460_storage":{"encoding":"inplace","label":"struct IEthMultiVault.Timelock","numberOfBytes":"96","members":[{"astId":65453,"contract":"src/EthMultiVault.sol:EthMultiVault","label":"data","offset":0,"slot":"0","type":"t_bytes_storage"},{"astId":65456,"contract":"src/EthMultiVault.sol:EthMultiVault","label":"readyTime","offset":0,"slot":"1","type":"t_uint256"},{"astId":65459,"contract":"src/EthMultiVault.sol:EthMultiVault","label":"executed","offset":0,"slot":"2","type":"t_bool"}]},"t_struct(TripleConfig)65413_storage":{"encoding":"inplace","label":"struct IEthMultiVault.TripleConfig","numberOfBytes":"96","members":[{"astId":65406,"contract":"src/EthMultiVault.sol:EthMultiVault","label":"tripleCreationProtocolFee","offset":0,"slot":"0","type":"t_uint256"},{"astId":65409,"contract":"src/EthMultiVault.sol:EthMultiVault","label":"atomDepositFractionOnTripleCreation","offset":0,"slot":"1","type":"t_uint256"},{"astId":65412,"contract":"src/EthMultiVault.sol:EthMultiVault","label":"atomDepositFractionForTriple","offset":0,"slot":"2","type":"t_uint256"}]},"t_struct(VaultFees)65449_storage":{"encoding":"inplace","label":"struct IEthMultiVault.VaultFees","numberOfBytes":"96","members":[{"astId":65442,"contract":"src/EthMultiVault.sol:EthMultiVault","label":"entryFee","offset":0,"slot":"0","type":"t_uint256"},{"astId":65445,"contract":"src/EthMultiVault.sol:EthMultiVault","label":"exitFee","offset":0,"slot":"1","type":"t_uint256"},{"astId":65448,"contract":"src/EthMultiVault.sol:EthMultiVault","label":"protocolFee","offset":0,"slot":"2","type":"t_uint256"}]},"t_struct(VaultState)65438_storage":{"encoding":"inplace","label":"struct IEthMultiVault.VaultState","numberOfBytes":"96","members":[{"astId":65431,"contract":"src/EthMultiVault.sol:EthMultiVault","label":"totalAssets","offset":0,"slot":"0","type":"t_uint256"},{"astId":65433,"contract":"src/EthMultiVault.sol:EthMultiVault","label":"totalShares","offset":0,"slot":"1","type":"t_uint256"},{"astId":65437,"contract":"src/EthMultiVault.sol:EthMultiVault","label":"balanceOf","offset":0,"slot":"2","type":"t_mapping(t_address,t_uint256)"}]},"t_struct(WalletConfig)65428_storage":{"encoding":"inplace","label":"struct IEthMultiVault.WalletConfig","numberOfBytes":"128","members":[{"astId":65418,"contract":"src/EthMultiVault.sol:EthMultiVault","label":"permit2","offset":0,"slot":"0","type":"t_contract(IPermit2)66033"},{"astId":65421,"contract":"src/EthMultiVault.sol:EthMultiVault","label":"entryPoint","offset":0,"slot":"1","type":"t_address"},{"astId":65424,"contract":"src/EthMultiVault.sol:EthMultiVault","label":"atomWarden","offset":0,"slot":"2","type":"t_address"},{"astId":65427,"contract":"src/EthMultiVault.sol:EthMultiVault","label":"atomWalletBeacon","offset":0,"slot":"3","type":"t_address"}]},"t_uint256":{"encoding":"inplace","label":"uint256","numberOfBytes":"32"}}},"id":79}